:020000040800F2
:10000000603100209D010008A50F00085B0F00086B
:10001000A10F0008D50200083925000800000000E3
:10002000000000000000000000000000592200084D
:10003000F9070008000000003510000849230008F7
:10004000B7010008B7010008B7010008B7010008B0
:10005000B7010008B7010008B7010008B7010008A0
:10006000B7010008B7010008B7010008B701000890
:10007000B7010008B7010008B7010008B701000880
:10008000B7010008B7010008B7010008B701000870
:10009000B7010008B7010008B7010008B701000860
:1000A000B7010008B7010008B7010008B701000850
:1000B000B7010008B7010008B7010008B701000840
:1000C000B7010008B7010008B7010008B701000830
:1000D000B7010008B7010008B7010008B701000820
:1000E000B7010008B7010008B7010008B701000810
:1000F000B7010008B7010008B7010008B701000800
:10010000B70100087D130008B7010008B701000817
:10011000B7010008B7010008B7010008B7010008DF
:10012000B7010008B7010008B7010008A5050008DD
:10013000B7010008B7010008B7010008B7010008BF
:10014000B7010008B7010008B7010008B7010008AF
:10015000B7010008B7010008B7010008B70100089F
:10016000B7010008B7010008B7010008B70100088F
:10017000B7010008B7010008B7010008B70100087F
:10018000B7010008B7010008DFF80CD000F090F8C4
:1001900000480047E54800086031002006488047D5
:1001A00006480047FEE7FEE7FEE7FEE7FEE7FEE75C
:1001B000FEE7FEE7FEE7FEE751230008890100089D
:1001C0002DE9F05F0546002092469B46884606468C
:1001D000814640241BE0284641464746224600F01F
:1001E00057F853465A46C01A914110D31146184643
:1001F000224600F03EF82D1A67EB01084F462246D2
:100200000120002100F035F817EB00094E41201EB7
:10021000A4F10104DFDC484631462A464346BDE8E6
:10022000F09F40EA01039B0703D009E008C9121FB1
:1002300008C0042AFAD203E011F8013B00F8013BA0
:10024000521EF9D2704730B50B46014600202022DD
:10025000012409E021FA02F59D4205D303FA02F5D3
:10026000491B04FA02F52844151EA2F10102F1DC33
:1002700030BD202A04DB203A00FA02F1002070474A
:100280009140C2F1200320FA03F3194390407047D4
:10029000202A04DB203A21FA02F00021704721FADB
:1002A00002F3D040C2F12002914008431946704742
:1002B000064C074D06E0E06840F0010394E80700B3
:1002C00098471034AC42F6D3FFF762FF4052000863
:1002D0006052000800BFFEE770B500254FF480347F
:1002E00000E0641E24B1802001F01CF80028F8D042
:1002F00014B90325284670BD40F2FF5000F0CEFF30
:100300002846F8E72DE9F0410646002748480568E9
:1003100001E04748056805F045000028F9D005F0E0
:10032000040030B10327042000F0B8FF3846BDE8D0
:10033000F08105F0010028B10127012000F0AEFF97
:100340003846F4E700F0E8FFB04202D01027384604
:10035000EDE740F2FF5000F0A1FF002001F002F8AD
:1003600004463448204008B93846E0E704F000402D
:1003700008B11C20DBE704F0804008B10920D6E773
:1003800004F0005008B10A20D1E704F0805008B111
:100390000B20CCE704F0006008B10C20C7E704F0A4
:1003A000806008B10D20C2E704F0807008B10E2013
:1003B000BDE704F4000008B10F20B8E704F48000A2
:1003C00008B11020B3E704F4001008B11120AEE723
:1003D00004F4801008B11220A9E704F4002008B149
:1003E0001320A4E704F4802008B114209FE704F44C
:1003F000003008B115209AE704F4803008B11620C7
:1004000095E704F4004008B1172090E704F4804019
:1004100008B118208BE704F4005008B1192086E7D2
:1004200004F0080008B11A2081E738467FE7000091
:10043000342C014008E0FFFD70B500251048046829
:1004400001E00F48046804F045000028F9D004F0EA
:10045000040028B10325042000F020FF284670BDC9
:1004600004F0010028B10125012000F017FF284603
:10047000F5E740F2FF5000F011FF2846EFE70000DB
:10048000342C014070B500250B48046801E00A488F
:10049000046804F045000028F9D004F0040028B1F5
:1004A0000325042000F0FAFE284670BD40F2FF50FC
:1004B00000F0F4FE2846F8E7342C01402DE9F04125
:1004C00006460F464FF000082248056801E0214823
:1004D000056805F045000028F9D005F0040038B1A2
:1004E0004FF00308042000F0D9FE4046BDE8F0813B
:1004F00005F0010030B14FF00108012000F0CEFE00
:100500004046F3E700F008FFB04203D04FF0100878
:100510004046EBE740F2FF5000F0C0FE002000F044
:1005200021FF044604F4604018B9200C388040468E
:10053000DCE704F4005008B11320D7E704F480404E
:1005400008B11020D2E704F4004008B10F20CDE735
:100550004046CBE7342C014070B500264FF480357F
:100560000F48046802E06D1E0D48046804F0450061
:1005700008B9002DF7D115B104F0040028B1032605
:10058000042000F08BFE304670BD04F0400028B11E
:100590000026402000F082FE3046F5E73046F3E7C3
:1005A000342C014010B501F0E5FB10BD0246094BAB
:1005B0009A4201D2084801E00648103801F0005381
:1005C0001BB1064B0B40C36002E0044B0B40836041
:1005D0007047000010640240006002407D0F7D0FF4
:1005E00021B1026842F00102026003E0026822F0D9
:1005F0000102026070470000016821F00101016002
:100600000021016041608160C1600161212141617F
:100610004A49884204D13D21484A103A91608CE011
:1006200046491831884205D14FF47461434A103A63
:10063000916082E041493031884205D14FF4741114
:100640003E4A103A916078E03C494831884205D1F1
:100650004FF07461394A103A91606EE03749603169
:10066000884204D13649354A103AD16065E03349B1
:100670007831884204D13349304A103AD1605CE085
:100680002E499031884204D12F492C4A103AD1602A
:1006900053E02A49A831884205D14FF03D51274AFD
:1006A000103AD16049E02949884204D13D21274AC6
:1006B000083A116041E025491831884205D14FF4CC
:1006C0007461224A083A116037E02049303188428B
:1006D00005D14FF474111D4A083A11602DE01B49F1
:1006E0004831884205D14FF07461184A083A1160C8
:1006F00023E016496031884204D11149134A121F80
:1007000011601AE011497831884204D10D490F4A2D
:10071000121F116011E00D499031884204D10A493D
:100720000A4A121F116008E00849A831884204D122
:100730004FF03D51054A121F116070471060024092
:100740003D000020400F002000003D2010640240CA
:1007500021B1026842F02002026003E0026822F048
:1007600020020260704710B501F080034BB122B146
:10077000436943F08003436103E0436923F080034E
:10078000436180290BD02AB1036801F01E04234382
:10079000036004E0036801F01E04A343036010BD7E
:1007A00010B500220268134B1A40CC680B68234333
:1007B0004C6923438C692343CC6923430C6A23434C
:1007C0004C6A23438C6A23434C6B23438C6B234337
:1007D0001A430260426922F00702D1E90B34234335
:1007E0001A4342610B6943604B6883608B68C36046
:1007F00010BD00003F801CF07047000030B5144869
:1008000000684FF47A72B0FBF2F1481EB0F1807FBD
:1008100000D31BE0481E4FF0E022506150170F221A
:10082000002807DA13071D0E0A4B00F00F04241FDF
:100830001D5503E013071C0E074B1C5400BF00207E
:100840004FF0E02290610720106100BF30BD000032
:100850002000002018ED00E000E400E003490860FB
:1008600000BF024909680029FBD17047040000203D
:1008700010B5ADF5825D012213A1144803F0E2F832
:10088000134908700846007818B912A001F078FEE4
:1008900017E016A001F074FE4FF4805010AB002258
:1008A0000221009008A002F05FFD09490870084687
:1008B000007818B916A001F063FE02E019A001F05B
:1008C0005FFE0DF5825D10BD303A0000540000203F
:1008D000000000200D0A5344CEC4BCFECFB5CDB3FA
:1008E000B9D2D4D8B3C9B9A60D0A00005344BFA8E1
:1008F000BBB9CEB4B4B4BDA8CEC4BCFECFB5CDB3E5
:10090000A3ACBCB4BDABB8F1CABDBBAF0D0A00000F
:100910005344BFA8B8F1CABDBBAFB3C9B9A6A3A120
:100920000D0A0000B8F1CABDBBAFCAA7B0DCA3ACCA
:10093000C7EBBCECB2E9BBF2B8FCBBBB5344BFA8ED
:10094000A3A10D0A0000000070B5ADF5A45D002460
:1009500000251C2247A10DF58760FFF762FC4CA023
:1009600001F00EFE0A2258A10DF58B6003F094F8F9
:100970005A49087008460078002828D158A001F08C
:10098000FFFD0DF254431C220DF58761181D03F085
:10099000BAFA524908700846007840B95AA001F0E6
:1009A000EFFD0DF587615FA001F0EAFD0AE05FA0B1
:1009B00001F0E6FD0DF58B6002F046FC00200DF520
:1009C000A45D70BD0DF58B6002F03EFC08E061A0F7
:1009D00001F0D6FD0DF58B6002F036FC0020EEE74D
:1009E00068A001F0CDFD1C25012237A10DF58B601B
:1009F00003F052F8394908700DF254432A460EA903
:100A0000181D03F049F93549087008460078002898
:100A100020D169A001F0B4FD002411E00DF587603C
:100A2000005D0EA9095D884208D06BA001F0A8FD09
:100A30000DF58B6002F008FC0020C0E7601CC4B21A
:100A4000AC42EBDB6DA001F09BFD0EA935A001F0DF
:100A500097FD08E070A001F093FD0DF58B6002F0AA
:100A6000F3FB0020ABE70DF58B6002F0EDFB0120FE
:100A7000A5E7000053544D333246343239205344F5
:100A8000BFA820CEC4BCFECFB5CDB3B2E2CAD4005D
:100A90002D2D2D2D2D2D2D2D2D2D2D2D2D466174F2
:100AA000467320CEC4BCFEB4B4BDA8BACDD0B4C881
:100AB000EBB2E2CAD42D2D2D2D2D2D2D2D2D2D2D2A
:100AC0002D2D2D2D0D0A0000303A466174467320FD
:100AD000546573742E7478740000000000000020C8
:100AE000CEC4BCFEB4F2BFAA2FB4B4BDA8B3C9B97A
:100AF000A6A3ACD7BCB1B8D0B4C8EBCAFDBEDD2E3E
:100B00002E2E0D0A00000000D0B4C8EBB3C9B9A660
:100B1000A3ACD0B4C8EBC4DAC8DDCEAAA3BA0D0A20
:100B20000000000025730D0A00000000CEC4BCFECA
:100B3000D0B4C8EBCAA7B0DCA3ACC7EBBCECB2E93D
:100B40005344BFA8BBF2D6D8D0C2B8F1CABDBBAF20
:100B5000210D0A00CEDEB7A8B4F2BFAA2FB4B4BDEF
:100B6000A8CEC4BCFEA3ACC7EBBCECB2E95344BFF7
:100B7000A8BBF2D6D8D0C2B8F1CABDBBAF210D0A0E
:100B8000000000002D2D2D2D2D2D2D2D2D2D2D2D49
:100B90002D466174467320CEC4BCFEB6C1C8A1B256
:100BA000E2CAD42D2D2D2D2D2D2D2D2D2D2D2D2D7C
:100BB0002D2D0D0A00000000CEC4BCFEB6C1C8A198
:100BC000B3C9B9A6A3ACD5FDD4DAD0A3D1E9CAFD87
:100BD000BEDD2E2E2E0D0A00D0A3D1E9CAA7B0DCAF
:100BE000A3ACC7EBBCECB2E95344BFA8BBF2D6D868
:100BF000D0C2B8F1CABDBBAF210D0A00D0A3D1E964
:100C0000B3C9B9A6A3ACB6C1B3F6B5C4CAFDBEDDBF
:100C1000CEAAA3BA0D0A0000CEDEB7A8B6C1C8A1FD
:100C2000CEC4BCFEA3ACC7EBBCECB2E95344BFA836
:100C3000BBF2D6D8D0C2B8F1CABDBBAF210D0A00F5
:100C40002DE9FC410024002501AA69460FA002F00D
:100C50000CFB0198C069801E0199498900FB01F7CE
:100C600001984089009900FB01F6C7F3CB24C6F335
:100C7000CB2507A001F084FC214613A001F080FCE5
:100C8000294615A001F07CFCBDE8FC81303A00004B
:100C90002D2D2D2D2D2D2D2D2D2D2D2D2D2D2D2D84
:100CA0002D2D2DBBF1C8A1C9E8B1B8C8DDC1BFD099
:100CB000C5CFA22D2D2D2D2D2D2D2D2D2D2D2D2DB5
:100CC0002D2D2D2D0D0A00005344C8DDC1BFA3BA40
:100CD00025644D420D0A00005344CAA3D3E0A3BAD1
:100CE00025644D420D0A00002DE9FC4107460D46E2
:100CF0000026002400200090019008205B49086035
:100D000010204860402088600020C8604FF4806058
:100D10000861084600F064FB1020FFF7F3FA044670
:100D200014B12046BDE8FC815148008800044F49B9
:100D3000086037204860402088600020C8604FF479
:100D400080600861084600F04BFB3720FFF7DAFAB5
:100D500004460CB12046E5E74FF0FF3045490860F6
:100D600008204860302088600220C86000200861A8
:100D700001204861084600F0A9FA00203B490860BC
:100D800033204860402088600020C8604FF48060B5
:100D90000861084600F024FB3320FFF7B3FA04464D
:100DA0000CB12046BEE709E04FF4001000F0BAFA9B
:100DB00020B100F00FFB4DF82600761C2E4800688D
:100DC00040F22A6108400028EED0082000F0AAFA7C
:100DD00028B1082000F062FA04242046A2E702208D
:100DE00000F0A0FA28B1022000F058FA02242046B0
:100DF00098E7202000F096FA28B1202000F04EFA63
:100E0000062420468EE74FF4007000F08BFA30B1D4
:100E10004FF4007000F042FA0724204682E740F2C7
:100E2000FF5000F03BFA00980006009901F47F4162
:100E300040EA0120009901F47F0140EA1120009965
:100E400040EA1160686001980006019901F47F4151
:100E500040EA0120019901F47F0140EA1120019943
:100E600040EA1160286020465CE700003011002055
:100E70000C00002044110020342C0140F0B50A463B
:100E800000210023002400BF3DE0012505FA01F305
:100E9000156805EA03049C4234D105684F00032617
:100EA000BE40B543056015794E00B5400668354330
:100EB00005601579012D02D01579022D16D18568AE
:100EC0004F000326BE40B543856055794E00B540BE
:100ED000866835438560456801268E40B543456088
:100EE000456896798E40B6B235434560C5684F0077
:100EF0000326BE40B543C560D5794E00B540C668EF
:100F00003543C560491C1029BFD3F0BDF0B500239F
:100F100000244D07ED0E02FA05F3CE1000F1200576
:100F200055F826504E07F70E0F26BE40B543CF109A
:100F300000F1200646F82750CE1000F1200555F8A4
:100F4000265045EA0304CE1000F1200545F826405E
:100F5000F0BD418370470183704700BFFEE700008A
:100F60001CB50121042000F067F801208DF8040071
:100F700000208DF8060001208DF8070000208DF874
:100F800005004FF40050009069460448FFF776FFD3
:100F90004FF400510148FFF7DCFF1CBD0008024080
:100FA00000BFFEE77047000070B5002100230F224C
:100FB000C4781CB3174C246804F4E064C4F5E064FE
:100FC000C4F30721C1F10404E3B20A4144789C4010
:100FD000E1B28478144021430C07210E0E4C0578B1
:100FE0006155047804F01F050124AC4005786D11AB
:100FF000AD0005F1E025C5F8004109E0047804F0F2
:101000001F050124AC40054D0678761145F82640B1
:1010100070BD00000CED00E000E400E080E100E0C5
:1010200002490143024A1160704700000000FA05BE
:101030000CED00E07047000029B1064A1268024337
:10104000044B1A6004E0034A12688243014B1A60A1
:10105000704700003038024029B1064A1268024346
:10106000044B1A6004E0034A12688243014B1A6081
:10107000704700004438024029B1064A1268024312
:10108000044B1A6004E0034A12688243014B1A6061
:101090007047000024380240F0B5002100220024EF
:1010A000022500260223324F3F6807F00C0121B1D0
:1010B000042905D0082937D105E02E4F076036E016
:1010C0002D4F076033E02A4F3F1F3F68C7F380561C
:1010D000274F3F1F3F6807F03F036EB1264FB7FB16
:1010E000F3F7DFF88CC0ACF1040CDCF800C0CCF3F3
:1010F000881C07FB0CF40CE01E4FB7FBF3F7DFF87E
:1011000070C0ACF1040CDCF800C0CCF3881C07FB09
:101110000CF4174F3F1F3F68C7F301477F1C7D004A
:10112000B4FBF5F7076002E0124F076000BF00BF95
:101130000F4F3F6807F0F0010909104F7A5C07680C
:10114000D74047600A4F3F6807F4E051890A0B4FC8
:101150007A5C4768D7408760054F3F6807F4604175
:10116000490B064F7A5C4768D740C760F0BD000066
:10117000083802400024F40000127A0034000020F5
:101180007CB50546002400200090019000F0EAF8AC
:1011900000F0007010B10E2420467CBD3D49098846
:1011A00088B26946FFF7A0FD04460CB12046F4E77B
:1011B000012D36D1019800F4802000282ED035482A
:1011C0000088000434490860372048604020886067
:1011D0000020C860A8020861084600F001F9372025
:1011E000FFF790F804460CB12046D6E702202A49C2
:1011F000086006204860402088600020C8604FF4E6
:1012000080600861084600F0EBF80620FFF77AF8E6
:1012100004460CB12046C0E72046BEE72524204600
:10122000BBE7019800F4803078B31A4800880004C6
:101230001949086037204860402088600020C86055
:101240004FF480600861084600F0CAF83720FFF7C5
:1012500059F804460CB120469FE700200E4908606B
:1012600006204860402088600020C8604FF48060FD
:101270000861084600F0B4F80620FFF743F804467A
:101280000CB1204689E7204687E7FFE72524204662
:1012900083E700000C0000203011002001490860A5
:1012A00070470000382C0140014908607047000079
:1012B000382C01400149086070470000A080254299
:1012C00001490860704700008C85254200210B4BC6
:1012D00002681A601B1D42681A601A1D116821F00D
:1012E000F701D0E902231A4303691A4343691A43F9
:1012F0001143024A0832116070470000242C01405B
:1013000010B50121C802FFF7B7FE00214FF40060BD
:10131000FFF7B2FE10BD000001480068C0B2704780
:10132000102C014001460020034A12680A400AB10D
:10133000012000E000207047342C014001460020CD
:10134000034A12680A400AB1012000E000207047F9
:10135000342C01400248006800F003007047000090
:10136000002C014008B501460020009002480844C6
:1013700000900098006808BD142C014010B500F0E2
:101380000DFD10BD29B1064A12680243044B1A60D4
:1013900004E0034A12688243014B1A607047000060
:1013A0003C2C014000210A4A116847F6FF62914334
:1013B000027D83681A4343681A43C3681A4303686B
:1013C0001A4303691A431143014A11607047000030
:1013D000042C01400148006870470000802C014047
:1013E0000021094B02681A601A1D11686FF30A0187
:1013F000D0E901231A43C3681A4303691A4311430E
:10140000014A121D11607047082C01400149086013
:1014100070470000002C014008B5012000909DF8A5
:10142000000008BD70B50446002520480068032868
:1014300002D12725284670BD1C48006838B11B48DA
:101440000068012803D01948006802282CD1B4F59F
:10145000805F02D127252846EDE7B4F5006F13D150
:101460000120FFF78DFE0546F5B9002010490875EB
:101470000860486088604FF40060C8600020086120
:101480000846FFF78FFF0FE00020FFF779FE0546C3
:1014900055B9002006490875086048608860C86032
:1014A00008610846FFF77EFF2846C4E708000020D1
:1014B00018110020F0B5014600200022C04B1B7817
:1014C00081F85630BF4B1B88A1F85430BE4B1B68C7
:1014D0001A0E93090B70C2F383034B7002F00303DF
:1014E0008B70B94B1B68C3F30742CA70B64B1B889D
:1014F000C3F307220A71B44B1A784A715B681A0E5B
:101500001301CB80B04B5B68C3F30742CB8843EA3F
:101510001213CB8002F00F030B72AB4B9B88C3F30B
:101520000722D3094B72C2F380138B72C2F34013AC
:10153000CB72C2F300130B7300234B73A04B1B68D9
:101540001BB19F4B1B68012B4FD193071B0D0B61E8
:101550009D4B1A790B6943EA82030B619A4B9B6896
:101560001A0E0B6943EA92130B61C2F3C2030B75A7
:1015700002F007034B75944B9B68C3F30742530972
:101580008B75C2F38203CB7593075B0F0B768E4B83
:101590001B89C3F307220B7E43EAD2130B760B6938
:1015A0005B1C0024C1E912340B7ED1E912469B1C5E
:1015B000012505FA03F3DF17A4FB035C06FB03C355
:1015C00004FB0733C1E912530C7A0123A3400B65D6
:1015D0000027D1E912560B6DA5FB034C06FB03C394
:1015E00005FB0733C1E9124336E0754B1B68022B3C
:1015F00032D1754B1A7993069B0A0B61724B9B682B
:101600001A0E0B6943EA02230B616F4B9B68C3F30D
:1016100007420B6913430B616B4B1B89C3F3072212
:101620000B6900245B1C44EB04074FF40076002593
:10163000A3FB064C07FB06C603FB05664FF480655B
:101640000027A4FB053C06FB05C504FB0754C1E9C4
:1016500012344FF400730B65C2F3801301F8193F85
:1016600093065B0E4B70584B1A7A4B7843EAD213B1
:101670004B7002F07F038B70534BDB681A0ED3095B
:10168000CB70C2F341130B71C2F382034B7193070A
:101690001B0F8B714C4BDB68C3F307428B7943EA1A
:1016A00092138B71C2F34013CB7100230B7202F0C3
:1016B00001034B72444B9B89C3F30722D3098B72FE
:1016C000C2F38013CB72C2F340130B73C2F3001347
:1016D0004B73C2F381038B7302F00303CB733A4B5A
:1016E0001A7B53080B7401234B74384B1B681A0E7A
:1016F000CA741939354B1B68C3F307421402CC85F1
:10170000324B1B88C3F30722CB8D1343CB852F4B62
:101710001A7814060C635B681A0E0B6B43EA0244DA
:101720000C632A4B5B68C3F307420B6B43EA02244A
:101730000C63264B9B88C3F307220B6B13430B638D
:10174000224B1A7934235A54204B9B681A0E3523A6
:101750005A541E4B9B68C3F3074214068C631B4B01
:101760001B89C3F307228B6B43EA02448C63174B3C
:101770001A7A8B6B43EA02248C63144BDB681A0ED3
:101780008B6B13438B63114BDB68C3F307423C2322
:101790005B5C43EA12143C235C5413071C0DCC879A
:1017A0000A4B9B89C3F30722CB8F1343CB87074B8D
:1017B0001A7B540840235C54012441235C54F0BD3F
:1017C000080000200C00002090100020A010002035
:1017D00008B500200090FFF71FFE012809D16846D8
:1017E00000F0CAFB08B1FF2008BD0098C0F34320F9
:1017F000FAE7FF20F8E710B50424FFF7E9FF0446F5
:10180000042C01D1002010BDFF2C01D10220FAE7E9
:101810000120F8E71CB5002001904FF4A060FFF70D
:10182000FFFB31208DF8000001208DF80100002021
:101830008DF8020001208DF803006846FFF7B4FB25
:101840003B208DF8000001208DF801006846FFF76D
:10185000ABFB00F06DF9FFF753FD00F0BBF9019011
:101860009DF8040010B19DF804001CBD00F032F892
:1018700001909DF8040010B19DF80400F5E70020E8
:1018800012490875086048608860C86008610846A9
:10189000FFF788FD0E48FFF70DFE01909DF804004C
:1018A00040B90B48B0F8540002041046002100F083
:1018B00047FB01909DF8040020B94FF40060FFF74A
:1018C000B1FD01909DF80400CFE700001811002041
:1018D000C010002038B5002401200090FFF73AFD29
:1018E00010B92524204638BD44480068042828D073
:1018F00000204349086002204860C0208860002022
:10190000C8604FF4806008610846FFF769FDFEF784
:1019100093FD04460CB12046E5E70020FFF722FDC9
:10192000384908600420FFF71DFD3649486008204B
:10193000FFF718FD334988600C20FFF713FD31498C
:10194000C8602E48006858B12C480068012807D0AC
:101950002A480068062803D028480068022816D1C3
:10196000002027490860032048604020886000204C
:10197000C8604FF4806008610846FFF731FD694692
:101980000320FEF79BFD04460CB12046ABE71B4845
:10199000006804282ED0BDF800001B490860BDF87F
:1019A000000000041649086009204860C0208860D3
:1019B0000020C8604FF4806008610846FFF710FD02
:1019C000FEF73AFD04460CB120468CE70020FFF7F5
:1019D000C9FC0E4908600420FFF7C4FC0B494860AD
:1019E0000820FFF7BFFC094988600C20FFF7BAFC0C
:1019F0000649C8600024204675E700000800002062
:101A000030110020A01000200C00002090100020B9
:101A100030B58FB004460D464FF0FA511E48FEF720
:101A2000C5FD00211C48FEF7DBFD1B48FEF7E4FD69
:101A30004FF000600090194801900294002003903C
:101A400001200490002005904FF4806006908000F3
:101A5000079080000890002009904FF440300A90D1
:101A600004200B9003200C904FF400000D90801088
:101A70000E9069460848FEF793FE012210210648A1
:101A8000FEF771FE20210448FEF762FE01210248A4
:101A9000FEF7A6FD0FB030BD58640240802C014017
:101AA00030B58FB004460D464FF0FA511E48FEF790
:101AB0007DFD00211C48FEF793FD1B48FEF79CFDB1
:101AC0004FF000600090194801900294402003906C
:101AD00001200490002005904FF480600690800063
:101AE000079080000890002009904FF440300A9041
:101AF00004200B9003200C904FF400000D908010F8
:101B00000E9069460848FEF74BFE01221021064858
:101B1000FEF729FE20210448FEF71AFE01210248A3
:101B2000FEF75EFD0FB030BD58640240802C0140CE
:101B30001CB501210C20FFF77FFA0C220821234855
:101B4000FFF7E4F90C2209212048FFF7DFF90C2206
:101B50000A211E48FFF7DAF90C220B211B48FFF778
:101B6000D5F90C2211461948FFF7D0F90C220221B1
:101B70001748FFF7CBF94FF47060009002208DF802
:101B800005008DF8040000208DF8060001208DF876
:101B9000070069460D48FFF771F904200090694677
:101BA0000B48FFF76BF94FF48050009000208DF840
:101BB000070069460548FFF761F90121C802FFF7F0
:101BC0004BFA01218805FFF737FA1CBD00080240D7
:101BD000000C0240F8B500200090002500240026EB
:101BE000002776205F4908750020086048608860FB
:101BF000C86008610846FFF7D5FB0320FFF706FC25
:101C00000120FFF757FB00205749086048608860B3
:101C1000C8604FF4806008610846FFF7E1FBFEF7FB
:101C20005BFB00909DF8000010B19DF80000F8BD2E
:101C30004FF4D5704C490860082048604020886007
:101C40000020C8604FF4806008610846FFF7C8FBB9
:101C5000FEF782FC00909DF8000020B90120434966
:101C60000860870712E000203F490860372048607D
:101C7000402088600020C8604FF4806008610846FA
:101C8000FFF7AEFB3720FEF73DFB00900020364902
:101C9000086037204860402088600020C8604FF40A
:101CA000806008610846FFF79BFB3720FEF72AFBA0
:101CB00000909DF80000002851D13BE000202A4907
:101CC000086037204860402088600020C8604FF4DA
:101CD000806008610846FFF783FB3720FEF712FBA0
:101CE00000909DF8000010B19DF800009FE720488B
:101CF00038431D4908602920486040208860002042
:101D0000C8604FF4806008610846FFF769FBFEF782
:101D1000B9FB00909DF8000010B19DF8000086E727
:101D20000020FFF71FFB0546012080EAD57080F0F8
:101D30000106641C1EB94FF6FF708442BED34FF6F5
:101D4000FF70844204D31B2000909DF800006EE7D2
:101D500005F08040051E02D00220044908609DF86D
:101D6000000064E718110020301100200800002056
:101D70000000108010B50748006800F0C05040B166
:101D80000120054908604FF0C25102485830FEF763
:101D90000DFC10BD006402401C00002010B54FF483
:101DA0008070FFF7CBFA50B10020254908704FF43E
:101DB0008070FFF779FA01202249086037E002209D
:101DC000FFF7BCFA30B10220FFF76EFA02201C497F
:101DD00008702CE00820FFF7B1FA30B10820FFF7B7
:101DE00063FA04201649087021E02020FFF7A6FAC4
:101DF00030B12020FFF758FA06201149087016E08C
:101E00001020FFF79BFA30B11020FFF74DFA0520A4
:101E10000B4908700BE04FF40070FFF78FFA30B1F8
:101E20004FF40070FFF740FA0720054908700021C1
:101E30004CF23A30FFF7A6FA0148007810BD0000D6
:101E400014000020180000202DE9F04781461446B8
:101E50001D46DDE908680027002032490870324934
:101E600008600120314908600020314908600121E3
:101E700040F22A30FFF786FA08FB06F14846FFF7E2
:101E8000C7FD0120FFF71CFA2A480068022808D184
:101E900006020202002320462946FEF791F9044675
:101EA0000D46254806601020234948604020886080
:101EB0000020C8604FF4806008610846FFF790FA80
:101EC0001020FEF71FFA074617B13846BDE8F08725
:101ED0004FF0FF301949086008FB06F04860902079
:101EE00088600220C860002008610120486108461F
:101EF000FFF7ECF91048046012200F4948604020B9
:101F000088600020C8604FF4806008610846FFF7D1
:101F100067FA1220FEF7F6F907460FB13846D5E703
:101F20003846D3E7140000201800002010000020DD
:101F30002C2C01400800002030110020441100200A
:101F400070B504460D4600260A480460072009497A
:101F50004860402088600020C8604FF480600861BD
:101F60000846FFF73DFA0720FEF7CCF90646304653
:101F700070BD00003011002070B50446002514B972
:101F80002625284670BD0F48008800040E490860C9
:101F90000D204860402088600020C8604FF48060B9
:101FA00008610846FFF71CFA0D20FEF7ABF905465D
:101FB0000DB12846E6E70020FFF7D4F92060284657
:101FC000E0E700000C0000203011002010B50024D4
:101FD00000200A4908600C204860402088600020EA
:101FE000C8604FF4806008610846FFF7F9F90C20DB
:101FF000FEF788F90446204610BD0000301100208D
:1020000070B500256C1E00E0641E1848006838B9E1
:102010001748006820B91748007808B9002CF3D198
:10202000002012490860441E00E0641E1248006847
:1020300000F4005008B1002CF7D1104800680128C6
:1020400005D1FFF7C3FF054600200C4908600CB915
:1020500005B9042540F2FF50FFF720F90548007844
:1020600010B10448007870BD2846FCE71C00002031
:102070001800002014000020342C01401000002023
:1020800070B500256C1E00E0641E1848006838B961
:102090001748006820B91748007808B9002CF3D118
:1020A000002012490860441E00E0641E12480068C7
:1020B00000F4805008B1002CF7D1104800680128C6
:1020C00005D1FFF783FF054600200C4908600CB9D5
:1020D00005B9042540F2FF50FFF7E0F80548007805
:1020E00010B10448007870BD2846FCE71C000020B1
:1020F0001800002014000020342C014010000020A3
:102100002DE9F047814615461E46DDE90878002492
:102110000020494908704949086001204849086081
:10212000002048490860012140F21A30FFF72AF9DF
:1021300008FB07F14846FFF7B3FC0120FFF7C0F8A2
:1021400041480068022808D10702020200232846FD
:102150003146FEF735F805460E463C48076010202C
:102160003A494860402088600020C8604FF4806091
:1021700008610846FFF734F91020FEF7C3F804465B
:1021800014B12046BDE8F0873148008800042F498B
:10219000086037204860402088600020C8604FF405
:1021A000806008610846FFF71BF93720FEF7AAF8A0
:1021B00004460CB12046E5E72448C0F8008017200B
:1021C00022494860402088600020C8604FF4806049
:1021D00008610846FFF704F91720FEF793F8044654
:1021E0000CB12046CEE71948056019201749486010
:1021F000402088600020C8604FF480600861084675
:10220000FFF7EEF81920FEF77DF804460CB12046E2
:10221000B8E74FF0FF300F49086008FB07F048604F
:10222000902088600020C86008610120486108464D
:10223000FFF74CF82046A5E7140000201800002006
:10224000100000202C2C014008000020301100203C
:102250000C00002044110020704700000CB5002045
:10226000019000903448006840F4803032490860A2
:1022700000BF3148006800F4003000900198401C15
:102280000190009818B90198B0F5A04FF1D12A48F3
:10229000006800F4003010B10120009001E000203F
:1022A00000900098012846D123484030006840F053
:1022B00080502149403108602048006840F4404087
:1022C0001E4908601C48083000681B490831086036
:1022D0000846006840F4004008600846006840F482
:1022E000A05008601648091F0860081F006840F0E9
:1022F0008070091F086000BF0F48006800F0007080
:102300000028F9D040F205700E4908600A480830EC
:10231000006820F00300084908310860084600689A
:1023200040F00200086000BF03480830006800F079
:102330000C000828F8D10CBD0038024000700040A5
:1023400008544007003C024010B500F035F810BDBD
:1023500010B51548006840F4700013490860134830
:10236000006840F001001149086000200F49083161
:1023700008600E4800680E4908400C4908600D4886
:10238000091D0860081F006820F48020091F0860EC
:10239000002006490C310860FFF760FF4FF0006035
:1023A00001498039086010BD88ED00E00038024026
:1023B000FFFFF6FE103000240448006820B10348F7
:1023C0000068401E014908607047000004000020BA
:1023D00021B1828942F40052828104E082894DF663
:1023E000FF731A40828170471CB501210846FEF731
:1023F00023FE02208DF8040000208DF80600012045
:102400008DF8070000208DF805004FF40070009053
:1024100069460A48FEF732FD4FF480600090694635
:102420000648FEF72BFD072209210448FEF76EFD42
:1024300007220A210148FEF769FD1CBD0000024089
:1024400002460020B1F5007F00D100BF13880B4089
:102450000BB1012000E00020704700002DE9FF478C
:1024600005460E460024A14600BFA046B08900B133
:1024700000BF2C8A24F44054F08804432C82AC8999
:1024800041F20C608443B088318908437189084364
:102490000443AC81AC8A24F44074B0890443AC8218
:1024A0006846FEF7F9FD2048854202D01F48854264
:1024B00002D1DDF80C9001E0DDF80890A88900F465
:1024C000004040B109EBC90000EB09103168490038
:1024D000B0FBF1F707E009EBC90000EB0910316828
:1024E0008900B0FBF1F76420B7FBF0F0040120098C
:1024F000642101FB1078A88900F4004040B132202B
:1025000000EBC800B0FBF1F000F00700044308E066
:10251000322000EB08106421B0FBF1F000F00F0056
:1025200004432C81BDE8FF870010014000140140E6
:10253000C1F308028280704700BFFEE71FB501218A
:102540001020FEF789FDFFF74FFF4FF4E1300090B8
:102550000020ADF80400ADF80600ADF808000C202E
:10256000ADF80A000020ADF80C0069460348FFF7FB
:1025700075FF01210148FFF72BFF1FBD001001402F
:102580000FB4054B10B503A9044A029800F018F8DF
:1025900010BC5DF814FB0000254600085000002028
:1025A00002E008C8121F08C1002AFAD1704770471C
:1025B000002001E001C1121F002AFBD1704700007A
:1025C0002DE9FF4F8BB09A460F460546002606E0E0
:1025D00025280BD052460D9990476D1C761C287803
:1025E0000028F5D10FB03046BDE8F08F0024A0469A
:1025F0000122604900E0044315F8013F203B02FA44
:1026000003F00842F7D128782E2817D115F8010FCA
:1026100044F004042A280ED06FF02F022878A0F18D
:10262000300109290AD808EB880102EB410100EBCF
:1026300001086D1CF2E757F8048B6D1C2878692897
:102640003ED006DC0028CDD063280BD0642804D10E
:1026500036E0732810D075284BD052460D9990471C
:10266000761C85E017F8040B8DF8000000208DF82B
:102670000100E946012003E057F8049B4FF0FF30CA
:1026800061074FF0000401D40AE0641C44450DDAF0
:102690008442FADB19F804100029F6D106E0641C24
:1026A0008442FCDB19F804100029F8D1264404E028
:1026B00019F8010B52460D999047641EF8D257E065
:1026C00001CF4FF00A0B002802DA40422D2102E030
:1026D000210504D52B218DF82410012103E0E10709
:1026E00005D02021F7E70DF1200908910CE0002129
:1026F000F9E701CF4FF00A0BF9E75946FDF7A3FDC3
:1027000001F1300209F8012D0028F6D1ADEB0900E6
:1027100000F1200B600701D44FF00108D84502DD1D
:10272000A8EB0B0000E000208046002406E009A88A
:102730005246005D0D999047641C761C08988442AF
:10274000F5DB04E0302052460D999047761CB8F135
:102750000001A8F10108F5DC05E019F8010B52466B
:102760000D999047761CBBF10001ABF1010BF4DC35
:102770006D1C34E70928010070B504460D460020A1
:10278000E070401E60632946204602F0FDF808B163
:10279000042070BD04F2362002F09DF84AF655215F
:1027A000884201D00320F4E794F83800E92807D0E4
:1027B00094F83800EB2815D13A20005D902811D10B
:1027C000032209A104F16E0002F0B6F808B9002056
:1027D000DFE7052205A104F18A0002F0ADF808B98F
:1027E0000020D6E70220D4E7464154004641543346
:1027F00032000000024600E0521C107810B1107840
:102800008842F9D1107870470246891ED069801E2F
:10281000884201D8002070475389106B03FB0100E8
:10282000F9E700002DE9F04780460C4604F11A0054
:1028300002F051F810B10020BDE8F087207800F0D8
:102840003F00401E00EB800101EBC0054FF0010985
:10285000002621E01849895D081902F03CF8074676
:10286000B9F1000F11D0FF2D0BD2384601F088FCD2
:10287000824629466D1C38F8110001F081FC824522
:1028800001D00020D8E7B94605E04FF6FF70874237
:1028900001D00020D0E7761C0D2EDBD3207800F08D
:1028A000400038B1B9F1000F04D038F8150008B174
:1028B0000020C1E70120BFE7E64D00082DE9F04701
:1028C00082468846DAF80040B8F1000F06D1676901
:1028D00017B1E069B84215D8012713E041465046C8
:1028E00001F018FF0546022D02D20120BDE8F08755
:1028F000681C08B92846F9E7E069A84201D92846CA
:10290000F4E74746A06908B90020EFE700264745ED
:1029100018D17E1CE069B04200D8022631465046EC
:1029200001F0F8FE0546012D01D0681C08B92846C3
:10293000DCE73DB16569022D03D3E069A84200D907
:102940002F460026E6B93E4600BF761CE069B0423D
:1029500004D80226BE4201D90020C7E731465046BE
:1029600001F0D8FE054605B909E0012D01D0681C2B
:1029700008B92846BAE7BE42E7D10020B6E700BF53
:102980004FF0FF323146204602F018F88146B9F187
:10299000000F08D1B8F1000F05D03246414620465D
:1029A00002F00CF88146B9F1000F0DD16661D4E94F
:1029B0000610801E814202D8A069401EA0612079C5
:1029C00040F00100207107E0B9F1010F02D14FF092
:1029D000FF3000E001200646304687E72DE9F34F3F
:1029E00083B08146049800680190D9F80000D0F8BF
:1029F00010A000200646054600BF28466D1C019920
:102A00000C5C202C00DA3EE02F2C01D05C2C0AD18B
:102A100000E06D1C0198405D2F28FAD00198405DC0
:102A20005C28F6D02FE0FF2E03D3062005B0BDE8CA
:102A3000F08FE4B2204600F011F968B128466D1C11
:102A4000019911F8008008EB042084B2404600F0A0
:102A50000BF908B90620E9E740F2B511204601F06C
:102A60005DFB04460CB90620E0E7802C06DA21461F
:102A700074A0FFF7BFFE08B10620D7E73046761CEA
:102A80002AF81040B9E700BF019841190498016085
:102A9000202C01DA042000E00020074608E0701E28
:102AA0003AF81040202C02D02E2C00D002E0761EE6
:102AB000002EF4D100BF00202AF816000EB906201F
:102AC000B4E70B22202109F1200001F054FF00257A
:102AD00000E06D1C3AF815002028FAD03AF81500ED
:102AE0002E28F6D00DB147F0030700E0761E26B180
:102AF000701E3AF810002E28F8D10020804602906F
:102B00004FF0080B00BF28466D1C3AF8104004B97E
:102B10006AE0202C03D02E2C04D1B54202D047F01D
:102B20000307F0E70298584501D2B54216D1BBF130
:102B30000B0F02D147F0030756E0B54201D047F032
:102B40000307B54200D94FE03546082002904FF008
:102B50000B0B4FEA88604FEA1068D4E7802C0EDB3D
:102B600047F0020740F2B511204601F0EDFA0446A5
:102B700004F0800018B104F07F0035490C5CFF2C94
:102B800011DDABF101000299884204D847F0030738
:102B9000CDF808B0B7E722120298411C029109F162
:102BA00020010A5419E024B121462AA0FFF722FE91
:102BB00018B15F2447F003070FE0412C04DB5A2CC7
:102BC00002DC48F0020808E0612C06DB7A2C04DC09
:102BD00048F00108A4F1200084B20298411C02913F
:102BE00009F120010C548EE700BF99F82000E52878
:102BF00002D1052089F82000BBF1080F03D14FEA6C
:102C000088604FEA106808F00C000C2803D008F028
:102C10000300032801D147F0020707F0020058B96A
:102C200008F00300012801D147F0100708F00C005C
:102C3000042801D147F008072B2000F80970002074
:102C4000F4E60000222A3A3C3E3F7C7F0000000070
:102C5000F34D00082B2C3B3D5B5D0000014609B1A4
:102C6000002070470020FCE7014609B100207047B2
:102C70000020FCE72DE9F04104460E46D4F8008020
:102C80000021204600F0DFF90546EDB9002700BF1E
:102C90004046A16901F078FE054605B113E0E06900
:102CA0000078E52802D0E069007820B9781C074652
:102CB000B04201D107E000270121204600F0B7F81B
:102CC0000546002DE4D000BF042D00D1072528467D
:102CD000BDE8F0812DE9F04704468946204602F020
:102CE0003FF810B10120BDE8F08749462046FFF7C4
:102CF0008BFD06466663A289002104F1380001F0CD
:102D00003AFE04F138080127002500E03D446089BF
:102D1000A84207D9721960783B46414600F066FA2E
:102D20000028F3D06089A84201D00120DBE7002011
:102D3000D9E72DE9F0470446D4F800A00021204649
:102D400000F081F9064616B13046BDE8F0874FF035
:102D5000FF08C1464FF0FF30E06200BF5046A16956
:102D600001F012FE064606B15EE0E06905780DB995
:102D7000042659E0E069C07A00F03F07A771E52D0D
:102D800004D007F0080038B10F2F05D04FF0FF082E
:102D90004FF0FF30E06240E00F2F22D12B20005D8A
:102DA00000F0400098BB05F0400038B1E06990F8B1
:102DB0000D9005F0BF05A8462069E06245450CD19D
:102DC000E069407B484508D1E169DAF81000FFF777
:102DD00029FD10B1A8F1010000E0FF2000F0FF087C
:102DE0001BE0B8F1000F05D1E06901F060FF484534
:102DF00000D119E02B20005D00F0010040B90B224A
:102E000004F12001E06901F097FD08B90CE004E04D
:102E10004FF0FF084FF0FF30E0620021204600F045
:102E200006F80646002E99D000BF30468DE72DE902
:102E3000F041044688462668206900F12007A06911
:102E400010B1B7F5001F02D30420BDE8F081B089AE
:102E5000B7FBF0F100FB1170002847D1A069401CBE
:102E6000A061606938B93089B0EB571F3ED80020A7
:102E7000A0610420E9E7B089B7FBF0F07189491E31
:102E8000084098BB2046616901F044FC0546012DCD
:102E900001D80220D9E7681C08B90120D5E7F069FC
:102EA000A8421DD8B8F1000F03D10020A061042072
:102EB000CBE720466169FFF701FD05460DB9072004
:102EC000C3E7012D01D10220BFE7681C08B901202A
:102ED000BBE729463046FFF7FDFE08B10120B4E705
:102EE000656129463046FFF78FFCA0612761B089F4
:102EF000B7FBF0F100FB117106F138000844E06106
:102F00000020A2E72DE9FE4F044626682B20005D35
:102F100000F0A00010B10620BDE8FE8F4FF00009C0
:102F200001E009F10109306930F819000028F8D1F1
:102F30000C2204F12001684601F010FD9DF80B0001
:102F400000F0010028B340212B2001554FF001086B
:102F50000EE04346694604F12000326901F074FB3B
:102F60002046FFF7E6FE054605B104E008F101083A
:102F7000B8F1640FEDD300BFB8F1640F01D10720A1
:102F8000CAE7042D01D02846C6E79DF80B102B2078
:102F900001559DF80B0000F0020030B109F10C0062
:102FA0000D21B0FBF1F0401C00E00120074639463E
:102FB0002046FFF75FFE05464DBB781E071E26D054
:102FC0002069A0EB4711204600F03DF80546F5B911
:102FD00004F1200001F06BFE824600BF3046A1697B
:102FE00001F0D2FC054605B110E0FAB2E1695346A2
:102FF000306901F0ABFD0120F07000212046FFF7A1
:1030000016FF054615B9781E071EE7D100BFC5B9E2
:103010003046A16901F0B8FC054695B9202200218F
:10302000E06901F0A8FC0B2204F12001E06901F045
:1030300095FC2B20005D00F01800E1690873012069
:10304000F070284668E72DE9F04104460E462568F1
:10305000B6F5001F02D206F01F0010B10220BDE835
:10306000F0812661A7681FB92878032800DBEF6A82
:1030700047B92889B0EB561F01D80220EFE7E86A6C
:10308000A0611DE06889A98900FB01F811E03946BB
:10309000204601F03FFB0746781C08B90120DEE717
:1030A000022F02D3E869B84201D80220D7E7A6EB85
:1030B00008064645EBD239462846FFF7A5FBA06136
:1030C0006761A06908B90220C9E7A889B6FBF0F0DA
:1030D000A1690844A061A889B6FBF0F100FB116169
:1030E00005F138000844E0610020B8E770B50446F7
:1030F000012514B1012C0AD107E0FEF78BFB18B9AA
:1031000025F00105284670BD00BF2846FBE70120D9
:10311000F9E700002DE9F04705460E4614464FF04A
:10312000040915B1012D20D11DE0012E04D0022E7D
:103130000DD0032E13D10EE00D484FF40072002382
:10314000D0E912713846FDF73BF8206007E04FF4F4
:103150000070208003E04FF40070206000BF00BFCB
:103160000020BDE8F0874846FBE70420F9E70000AF
:10317000C01000202DE9FC4104460D4616461F46AE
:103180004FF0000814B1012C20D11DE04FF4007065
:1031900071020A460023CDE900072846FEF754FED7
:1031A0008046B8F1000F07D1FEF72AFF804600BF26
:1031B000FEF721FB0028FBD1B8F1000F02D100205F
:1031C000BDE8FC810420FBE70420F9E70420F7E7D1
:1031D0000246012112B1012A06D103E021F00101CA
:1031E000084670470846FCE70120FAE72DE9FC4154
:1031F00004460D4616461F464FF0000814B1012C38
:1032000020D11DE04FF4007071020A460023CDE981
:1032100000072846FEF774FF8046B8F1000F0ED174
:10322000FEF72EFF804600BFFEF7E5FA0028FBD12F
:10323000B8F1000F01D1BDE8FC810420FBE700BF1D
:103240000420F8E70420F6E738B50546284600F0E4
:103250000AFE04463CB96946284601F0A6FD04462C
:103260000CB900202860204638BD2DE9F74F86B004
:1032700088469246002205A906A800F0D3FF8146A1
:10328000B9F1000F6CD10598CAF800000598D0E993
:103290000610801E814204D805988069C8F8000095
:1032A0005EE000250598007801281BD102260598CC
:1032B000019000BF314601A801F02CFA0746781CA6
:1032C00010B94FF001090CE0012F02D14FF00209B3
:1032D00007E007B96D1C701C06460599C96988424C
:1032E000E8D333E00598C6690598D0F828B00024E3
:1032F00000BF54B959460BF1010B059801F044FB8E
:103300008146B9F1000F00D01FE00598007802282F
:1033100008D105993831081901F0DDFA00B96D1CA2
:10332000A41C09E005993831081901F0C8FA20F009
:10333000704000B96D1C241D05988089B4FBF0F124
:1033400000FB1144701E061ED3D100BFC8F8005008
:10335000059885610598007940F00100059908718C
:10336000484609B0BDE8F08F2DE9FF4F95B01746EC
:10337000012014904002139015A801F066FA029003
:103380000298002803DA0B2019B0BDE8F08FFB4942
:10339000029851F8200028B10021F84A029852F80A
:1033A000200001700298C0B2119000201090119876
:1033B000FFF79CFE0190019800F0010008B1032086
:1033C000E2E7019800F0040008B10A20DCE70CAA4B
:1033D00003211198FFF79EFE50B90C9840B10C984C
:1033E000B0F5004F04D80C98401E0C99084008B165
:1033F00001200C900FAA02211198FFF78BFE08B153
:103400000120C1E7BDF83C00B0F5805F0BDCBDF8E2
:103410003C00B0F5007F06DBBDF83C00401EBDF867
:103420003C10084008B10120AEE71FB1BDF83C00D8
:10343000874205D3B7F1807F02D8781E384008B1A3
:103440001320A1E7BDF83C00B7FBF0F7189CBDF8CE
:103450003C102298B0FBF1F00D90BDF83C100D9897
:1034600048430E900E9808B90E208DE700BF07AABA
:1034700001211198FFF74EFE08B1012084E716984C
:1034800000F0080008B1002000E03F2083460798C4
:10349000584501D20E2077E70798A0EB0B00079064
:1034A0000798802801D20E206EE700BF00BF802F52
:1034B00001D9132068E7169800F0020050B1169861
:1034C00000F00700022803D0169800F0010008B9A8
:1034D000032607E0169800F0010008B9132053E70F
:1034E000022600BF00BF00BF3D46032E2FD1A5B965
:1034F00007984FEA504900200390012503E0039804
:10350000401C03906D009E49039831F8100020B1D3
:10351000039831F810004845F1D90798B0FBF5F849
:10352000082000EB8800BDF83C100844401EB0FBAA
:10353000F1F0059020200690002004904FF6F570E1
:10354000804502D98F4880453BD90E201CE7A5B99C
:1035500007984FEA103900200390012503E00398F3
:10356000401C03906D008849039831F8100020B189
:10357000039831F810004845F1D90798B0FBF5F8E9
:1035800040F6F570804503D9042000EB480906E0B9
:10359000012608EB4800401C032101EB5009BDF84F
:1035A0003C004844401EBDF83C10B0FBF1F00590D3
:1035B00001200690BDF83C004FF48041B1FBF0F0D3
:1035C0000490069858440990099905980144049874
:1035D000084408900C9908980844401E491E20EAA7
:1035E00001010898A1EB0009032E06D10698484472
:1035F000069009984844099002E0059848440590CF
:10360000089800EB0510A0EB0B000799884201D940
:103610000E20B9E6DDE90601091A0598091A049891
:10362000081AB0FBF5F8032E0AD14FF6F570804565
:1036300006D81FB96808071E00D031E00E20A3E6A7
:10364000022E24D14FF6F570804514D92FB94020B1
:10365000B0EB450F01D36F0022E0169800F0020096
:1036600008B103261CE027B968000746802800D867
:1036700016E00E2088E640F6F570804507D827B999
:1036800068000746802800D80AE00E207CE6012E5C
:1036900005D140F6F570804501D90E2074E600E0B2
:1036A00022E700BFBDF83C200021204601F063F96D
:1036B0000B2236A1204601F051F9BDF83C1004F16F
:1036C0000B0001F0EEFA6573069881B204F10E006A
:1036D00001F0E7FA01202074032E01D1002001E05F
:1036E0004FF40070014604F1110001F0DAFA079876
:1036F000B0F5803F06D2079881B204F1130001F0C3
:10370000D0FA04E004F12000079901F0BEFAF82095
:1037100060753F2104F1180001F0C3FAFF2104F1A4
:103720001A0001F0BEFA594604F11C0001F0ADFA8E
:10373000032E37D101F087F80146009004F14300D1
:1037400001F0A3FA04F12400059901F09EFA022188
:1037500004F12C0001F099FA012104F1300001F08C
:10376000A0FA062104F1320001F09BFA802084F8CF
:103770004000292084F8420013220DE0440000207C
:10378000824E0008F5FFFF0F744E0008EBFE904DCF
:1037900053444F53352E30009DA104F1470001F0F2
:1037A000DDF819E001F04FF80146009004F1270020
:1037B00001F06BFA059881B204F1160001F071FA7C
:1037C000802084F82400292084F82600132295A163
:1037D00004F12B0001F0C2F84AF6552104F5FF7000
:1037E00001F05FFA01235A4621461198FFF7FEFCCB
:1037F00008B10120C8E5032E34D101230BF10602E4
:1038000021461198FFF7F2FCBDF83C20002120462C
:1038100001F0B1F88849204601F037FA874904F5EC
:10382000F27001F032FAA8F1010104F5F47001F030
:103830002CFA022104F5F67001F027FA4AF6552118
:1038400004F5FF7001F02DFA01230BF10702214668
:103850001198FFF7CBFC01230BF1010221461198CF
:10386000FFF7C4FC002120460E9A01F084F8099865
:103870000B900020039042E0032E0FD16FF0070160
:10388000204601F002FA311F201D01F0FEF96FF011
:10389000704104F1080001F0F8F909E0012E01D1AE
:1038A000674801E06FF007000146204601F0EDF99E
:1038B00005980A9000BF0D990A98884201D90D9881
:1038C00000E00A9881464B4621460B9A1198FFF773
:1038D0008DFC08B1012057E5BDF83C2000212046B1
:1038E00001F049F80B9848440B900A98A0EB0900A6
:1038F0000A900A980028DED10398401C0390039890
:103900000028B9D0032E01D1284600E004980A907F
:1039100000BF0D990A98884201D90D9800E00A98D5
:1039200081464B4621460B9A1198FFF75FFC08B180
:10393000012029E50B9848440B900A98A0EB090058
:103940000A900A980028E4D100BF032E02D10C206F
:1039500012900CE00798B0F5803F02D30620129039
:1039600005E0022E01D1042000E00120129000BFEA
:10397000169800F00800E8BBBDF83C200021204666
:1039800000F0F9FF4AF6552104F5FF7001F089F9BE
:1039900004F5DF7A00208AF8000001208AF801008F
:1039A0008AF8020000208AF8030012988AF80400BE
:1039B0000798584443F6C161B0FBF1F9FE208AF83C
:1039C00005003F2040EA99008AF806008AF807902F
:1039D00059460AF1080001F058F90AF10C0007995C
:1039E00001F053F90123002221461198FFF7FEFB55
:1039F00000B100E001E00120C6E400221146119868
:103A0000FFF788FB08B10120BEE40020BCE4000001
:103A10004E4F204E414D4520202020464154333208
:103A2000202020004E4F204E414D45202020204692
:103A30004154202020202000525261417272416185
:103A4000F8FFFF00F7B582B016460398019001A871
:103A500000F0FBFE0546002D02DA0B2005B0F0BD9C
:103A60000C4850F825400CB100202070029810B18D
:103A70000020029908700749029841F825000EB904
:103A80000020EBE7002202A903A800F0CBFB0746C9
:103A90003846E3E7440000202DE9F74FADF5107DEF
:103AA0000446164624B909200DF5137DBDE8F08FB4
:103AB00006F03F06324683A991A800F0B3FB054605
:103AC000002D7DD18398849002A88399086184A8F1
:103AD000919900F053FD05462DB99DF83B0200F089
:103AE000800000B1062506F01C00002850D045B12A
:103AF000042D03D184A8FFF705FA054646F0080611
:103B00000AE09DF8160200F0110008B1072503E055
:103B100006F0040000B10825002D4AD106F0080087
:103B2000002846D08B99839800F0B6FE814600F0BD
:103B30008AFE01908B9901F10E00019901F0A5F820
:103B400020208B99C87200228B99839801F08BF802
:103B50008B9901F11C00002101F097F80120839955
:103B6000C870B9F1000F24D08398406B8290002276
:103B7000494684A801F02AF80546D5B98299839868
:103B800000F002FF0546A9F101008399486110E0A9
:103B90007DB99DF8160200F0100008B1042508E078
:103BA00006F0020028B19DF8160200F0010000B1F5
:103BB00007255DB906F0080008B146F0400600E0B0
:103BC00054E08398406B20628B986062002D5ED138
:103BD0008B99839800F060FEA0608B9901F11C0026
:103BE00000F06DFEE060839820608398C088A0801C
:103BF000267400206074E06160614FF480520021FF
:103C000004F1280000F0B7FE06F0200070B3E06871
:103C100060B3E0686061839840898399898900FB7B
:103C200001FAA768D4F80C800CE03946204600F071
:103C300071FD0746012F00D80225781C00B9012527
:103C4000A8EB0A080DB9D045EFD8A76175B98398DC
:103C50008089B8FBF0F100FB118038B139468398B8
:103C6000FEF7D2FDB0F1000B01D102250FE08398E1
:103C70008089B8FBF0F05844E061E26983994878A4
:103C8000012304F12801FFF775FA00B101250DB1F8
:103C900000202060284607E72DE9FF4F85B0044645
:103CA00015469A46DDF818B00020CAF8000003A9AE
:103CB000204601F07AF80490049810B9607C0490D2
:103CC00018B1049809B0BDE8F08F207C00F0010025
:103CD00008B90720F6E76169E068401A0190019889
:103CE000854200D9019DB9E0606903998989B0FBDB
:103CF000F1F201FB1200002876D1606903998989ED
:103D0000B0FBF1F003994989491E00EA0109B9F1B4
:103D1000000F17D1606910B9A068029004E0204636
:103D2000A16900F0F7FC02900298022802D202205A
:103D30006074C7E70298401C10B901206074C1E7A5
:103D40000298A061A1690398FEF75EFD064616B9C8
:103D500002206074B6E74E4403988089B5FBF0F802
:103D6000B8F1000F2DD009EB08000399498988426A
:103D700003D903984089A0EB090803994878434682
:103D800032465946FFF7F6F910B10120607499E701
:103D9000207C00F0800078B1E069801B40450BD2A8
:103DA000E169891B039B9B8901FB03B003998A8905
:103DB00004F1280100F0D2FD0398808900FB08F788
:103DC00042E0E069B04220D0207C00F0800080B169
:103DD000E26903994878012304F12801FFF706FA04
:103DE00018B1012060746DE710E0207C00F07F00C6
:103DF0002074039948780123324604F12801FFF723
:103E0000B9F910B1012060745CE7E661606903995B
:103E10008989B0FBF1F201FB1200039989890F1A1D
:103E2000AF4200D92F46606903998989B0FBF1F24E
:103E300001FB120104F1280008443A4601460090B3
:103E4000584600F08BFD00BFED1BDAF80000384447
:103E5000CAF80000BB44606938446061002D7FF4FB
:103E600043AF00202EE7F8B504466946204600F02F
:103E70009CFF0646002E44D1207C00F04000002824
:103E80003FD0207C00F0800070B1E2690099487852
:103E9000012304F12801FFF7A9F908B10120F8BDB9
:103EA000207C00F07F00207400F0CDFC0746216AE2
:103EB000009800F069FD06461EBB656AE87A40F08E
:103EC0002000E8722946A268206800F0CCFE05F1C7
:103ED0001C00E16800F0D9FE394605F1160000F03B
:103EE000D4FE002105F1120000F0DBFE0120009954
:103EF000C870009800F0ECFE0646207C00F0BF0081
:103F000020743046CBE72DE9FF4F85B004461546B7
:103F10009B46069802900020CBF8000003A920469B
:103F200000F043FF0490049810B9607C049018B12D
:103F3000049809B0BDE8F08F207C00F0020008B9B9
:103F40000720F6E700BF606928446169884202D211
:103F50006069C0F1FF35D6E0606903998989B0FBDB
:103F6000F1F201FB120000287DD160690399898973
:103F7000B0FBF1F003994989491E00EA010ABAF140
:103F8000000F1ED1606938B9A76857B900212046D3
:103F9000FEF794FC074604E02046A169FEF78EFC7C
:103FA000074607B9B2E0012F02D102206074C0E7D2
:103FB000781C10B901206074BBE7A761A06800B944
:103FC000A760207C00F0800078B1E269039948780E
:103FD000012304F12801FFF709F910B101206074F1
:103FE000A7E7207C00F07F002074A1690398FEF70A
:103FF0000BFC064616B9022060749AE756440398F3
:104000008089B5FBF0F9B9F1000F31D00AEB090056
:1040100003994989884203D903984089A0EB0A098A
:10402000039948784B4632460299FFF7DFF810B102
:10403000012060747DE7E069801B484511D2E0698A
:10404000831B0398B0F80CC0029803FB0C01039883
:10405000828904F1280000F081FC207C00F07F00C0
:104060002074039800E017E0808900FB09F835E030
:10407000E069B0420FD0E168606988420BD20399D1
:1040800048780123324604F12801FFF773F810B194
:10409000012060744DE7E661606903998989B0FB8E
:1040A000F1F201FB120003998989A1EB0008A845F0
:1040B00000D9A846606903998989B0FBF1F201FB38
:1040C000120104F12800084442460190029900F0D0
:1040D00045FC207C40F08000207400BFA5EB080563
:1040E000DBF800004044CBF8000002984044029006
:1040F000606940446061E1686069884201D9606933
:1041000000E0E068E060002D7FF426AF00BF207C77
:1041100040F04000207400200BE7000010B502467C
:104120000020084B802A01DA104609E040F2B5145D
:10413000A14205D1FF2A03DCA2F1800433F8140068
:1041400010BD0000904E000810B5024600200B4B39
:10415000802A01DA104610E040F2B514A1420CD1D9
:10416000002001E0441CA0B2802803DA33F810409C
:104170009442F7D100F18004E0B210BD904E0008E7
:1041800030B5B0F5805F01DA244D00E0244D2946BA
:1041900000BF31F8022B0AB1904200DA3CE031F85E
:1041A000023B1C12DBB2D518854230DD092C2CD223
:1041B000DFE804F005090F13171B1F232700851ADA
:1041C00031F8150021E0851A05F00105451BA8B25C
:1041D0001BE0A0F11005A8B217E0A0F12005A8B2DD
:1041E00013E0A0F13005A8B20FE0A0F11A05A8B2C3
:1041F0000BE000F10805A8B207E0A0F15005A8B255
:1042000003E0A0F5E355A8B200BF00BF04E0002C16
:10421000BFD101EB4301BCE700BF30BD904F0008A8
:10422000825100082DE9F74F8AB000210B980160F8
:104230000A9800F00AFB08900898002803DA0B207F
:104240000DB0BDE8F08FC849089851F820400CB96E
:104250000C20F5E70B9804600C9800F0FE000C9021
:10426000207878B16078FEF7B3FF814609F001004D
:1042700040B90C9820B109F0040008B10A20DFE72A
:104280000020DDE700202070089860706078FEF75D
:104290002DFF814609F0010008B10320D0E70C98FA
:1042A00020B109F0040008B10A20C9E7607804F1E0
:1042B0000C020221FEF72EFF08B10120C0E7A08901
:1042C000B0F5805F07DCA089B0F5007F03DBA08933
:1042D000411E084008B10120B2E7002739462046B8
:1042E000FEF74AFA0546022D01D02EDA2DE000260F
:1042F00014E04FF4DF7000EB061104F138000844BD
:1043000009900998007920B10998083000F0D7FA8F
:1043100000E0002002A941F82600761C042EE8D314
:10432000002606B1761E00BF02A850F8267027B1FD
:1043300039462046FEF720FA00E003200546022D0C
:1043400003DB701C06460428EED3042D01D10120A6
:1043500076E7022D01DB0D2072E704F1430000F047
:10436000BAFAA189884201D00D2069E704F14E0014
:1043700000F0B1FA8046B8F1000F04D104F15C00FE
:1043800000F09DFA8046C4F820804820005DA070AF
:10439000A078012804D0A078022801D00D204FE792
:1043A000A07808FB00F84520005D6081608918B1A5
:1043B0006089411E084008B10D2041E704F1490021
:1043C00000F089FA2081A089C11700EBD161491161
:1043D000228992FBF1F301FB132109B10D202FE794
:1043E00004F14B0000F077FA8346BBF1000F04D1D3
:1043F00004F1580000F063FA834604F1460000F02F
:104400006AFA0190019808B90D2019E7A089C1172F
:1044100000EBD1614911228992FBF1F201994144EB
:104420001144079107998B4501D20D2008E70798A1
:10443000ABEB00006189B0FBF1FABAF1000F01D1DA
:104440000D20FDE600254948824500D803254FF69A
:10445000F570824500D8022540F6F570824500D8F7
:1044600001250DB90D20EBE60AF10200E06167625B
:1044700001983844A062079838442063032D13D173
:1044800004F1620000F027FA08B10D20D8E6208977
:1044900008B10D20D4E604F1640000F010FAE062E7
:1044A000E0698000069014E0208908B90D20C7E675
:1044B000A06A4044E062022D02D1E069400007E0BA
:1044C000207F00F00100E16901EB410100EB5100A8
:1044D0000690A089401E06990844A189B0FBF1F01E
:1044E000216A884201D90D20AAE64FF0FF30A06171
:1044F000606180202071032D2CD104F1680000F050
:10450000EAF9012826D1791C204600F03DFA08BBC3
:104510000020207104F2362000F0DDF94AF6552122
:10452000884217D104F1380000F0C9F910498842D7
:1045300010D104F5077000F0C2F90E49884209D184
:1045400004F5087000F0BBF9A06104F5097000F0F3
:10455000B6F96061257008480088401C80B20649A1
:104560000880E08000206BE644000020F5FFFF0F8C
:1045700052526141727241614C0000202DE9F341B9
:104580000446276802E00198401C019001980078D9
:104590002F28F8D0019800785C28F4D00020A06083
:1045A00001980078202808D280212B200155002175
:1045B0002046FEF748FD054631E000BF01A9204630
:1045C000FEF70CFA054605B128E02046FEF7B1FBE0
:1045D00005462B20065D3DB1042D04D100BF06F039
:1045E000040000B9052519E006F0040000B115E04B
:1045F000A07900F0100008B905250FE0B9892069FD
:10460000B0FBF1F201FB120107F1380001EB0008E9
:104610004146384600F040F9A060CFE700BF284689
:10462000BDE8FC8170B504460D46E1B20548FDF7D2
:104630007FFF00BF80210348FDF702FF0028F9D06B
:10464000204670BD001001402DE9FF4F83B0804629
:1046500091461E460B224046049900F07FF9052E34
:1046600018D9374611E039F802BB00250BE058464F
:1046700067F35F0007464FEA6B0B07F4803008B121
:10468000234847406D1C102DF1D3B9F800000028D5
:10469000E9D13E46072500BF06F00F0000F1300AC1
:1046A000BAF1390F03DD0AF1070000F0FF0A2846CE
:1046B0006D1E01A901F800A03609002EECD17E2064
:1046C000485500240AE018F80400FEF7C7FA20B1A4
:1046D000681EA04200D107E0641C641CAC4203D2F7
:1046E00018F804002028EED100BF00BF082D04D226
:1046F00028466D1C01A9085C00E020202146641CAE
:1047000008F80100082CF1D307B0BDE8F08F0000D5
:10471000211001002DE9F05F81460D46D9F80040D7
:10472000022D02D3E069A84202D84FF0010887E0C9
:104730004FF0FF382078012804D002283AD003280F
:104740007AD156E02E4606EB5606A089B6FBF0F06D
:10475000A16A00EB010A5146204600F015F900B1AC
:104760006DE03046761CA189B0FBF1F201FB12012D
:1047700004F13800475CA089B6FBF0F0A16A00EBB9
:10478000010A5146204600F0FFF800B157E0A08929
:10479000B6FBF0F100FB116104F13800405C47EA20
:1047A000002705F0010008B1380901E0C7F30B004C
:1047B000804644E0B4F80CA00AEBDA704010B5FB78
:1047C000F0F0A16A00EB010B5946204600F0DCF83E
:1047D00000B134E06800A189B0FBF1F201FB1201E5
:1047E00004F1380001EB000A504600F074F88046EE
:1047F00025E0B4F80CA04FEAEA700AEB9070801044
:10480000B5FBF0F0A16A00EB010B5946204600F021
:10481000BBF800B113E0A800A189B0FBF1F201FBE5
:10482000120104F1380001EB000A504600F047F88D
:1048300020F0704803E0FFE74FF0010800BF00BF21
:104840004046BDE8F09F0020704730B502464FF06B
:10485000FF301568FDB1116800E0491C0D78202D6E
:1048600002D30D783A2DF8D10D783A2D12D1146873
:1048700014F8013B302B0ED3392B0CD88C420AD1C3
:10488000A3F130052B46022D05D218464D1C2946B2
:10489000156000E0002030BD70B505460C4604F1FF
:1048A0001A0000F018F806462878032805D104F10C
:1048B000140000F010F846EA0046304670BD01468C
:1048C000C8788A7842EA00204A7842EA00200A78CA
:1048D00042EA00207047014648780A7842EA002000
:1048E00070470000FCF73CFBFBF788FFFDF726FE56
:1048F000FBF7BEFFFCF7A4F9FCF726F819E04FF42C
:1049000000510C48FCF727FB4FF400510948FCF715
:1049100020FB9620FBF7A2FF4FF400510548FCF75F
:1049200018FB4FF400510348FCF715FB9620FBF7EA
:1049300095FFE4E700080240F0B503461D460C462B
:10494000002000BF15F8017B14F801CBA7EB0C0089
:10495000561E321E01D00028F4D0F0BD30B50346FB
:104960000C463AB100BF14F8015B03F8015B551E19
:104970002A1EF8D130BD10B5034600BF03F8011B55
:10498000541E221EFAD110BD70B504460D460026F5
:10499000606BA84210D0204600F0E2F906465EB9EE
:1049A000607801232A4604F13801FEF7E3FB10B1D9
:1049B0004FF0FF3501266563304670BD2DE9F05F8D
:1049C00004460D4616464FF00209022D72D3E069E7
:1049D000A8426FD92078012804D0022857D0032894
:1049E00011D179E02F4607EB5707A089B7FBF0F00C
:1049F000A16A00EB010A51462046FFF7C5FF814638
:104A0000B9F1000F00D09DE038467F1CA189B0FBB2
:104A1000F1F201FB120104F1380001EB000805F08E
:104A2000010028B1F1B298F8000061F31F1000E016
:104A3000304688F800000120E070A089B7FBF0F054
:104A4000A16A00EB010A51462046FFF79DFF81460F
:104A5000B9F1000F00D075E0A089B7FBF0F100FBC1
:104A6000117104F1380001EB000805F0010010B1EC
:104A7000C6F3071006E098F8000000F0F000C6F357
:104A80000321084388F800000120E0705AE0B4F8E0
:104A90000CA00AEBDA704010B5FBF0F0A16A00EB55
:104AA000010B59462046FFF76FFF8146B9F1000F11
:104AB00001D047E047E06800A189B0FBF1F201FBBB
:104AC000120104F1380001EB000AB1B2504600F0C7
:104AD000E8F80120E07035E0B4F80CA04FEAEA7085
:104AE0000AEB90708010B5FBF0F0A16A00EB010BAF
:104AF00059462046FFF748FF8146B9F1000F00D024
:104B000020E0A800A189B0FBF1F201FB120104F141
:104B1000380001EB000A5046FFF7D1FE66F31B0098
:104B20000646A800A189B0FBF1F201FB120104F1D5
:104B3000380001EB000A3146504600F0A6F801208B
:104B4000E07000BF00BF4846BDE8F09F2DE9F04788
:104B500007460C461546984684F80D800F20E072F3
:104B600000202073002104F11A0000F09AF8681E5A
:104B700000EB800101EBC00900200646824600BF21
:104B80004FF6FF70864204D0484609F1010937F814
:104B900010600D4911F80A100819314600F081F82B
:104BA0000EB94FF6FF760AF1010082460D28E7D3D1
:104BB0004FF6FF70864202D037F8190008B945F069
:104BC00040052570BDE8F087E64D00082DE9F04767
:104BD00081460E4617464FF00008D9F80040022ED5
:104BE00002D3E069B04202D80220BDE8F08767B185
:104BF00000BF4FF0FF3239462046FFF7DFFE804608
:104C0000B8F1000F01D04046EFE700BF31464846FB
:104C1000FFF780FD054605B922E0012D01D10220F4
:104C2000E3E7681C08B90120DFE70022314620468F
:104C3000FFF7C4FE8046B8F1000F01D04046D4E72C
:104C4000D4E90610801E814206D2A069401CA061F2
:104C5000207940F0010020712E46E069B042D5D89D
:104C600000BF0020C1E770B506460C461546A9B244
:104C700004F11A0000F015F83078032804D1290C4B
:104C800004F1140000F00DF870BD00F8011B090AD2
:104C900000F8011B090A00F8011B090A00F8011BB2
:104CA000704700F8011B091200F8011B704730B56E
:104CB000014600200B2200BF431003EBC01411F883
:104CC000015B6319D8B2531E1A1EF5D130BD000026
:104CD00070B50446204600F043F80546002D38D153
:104CE000207803282ED1207901282BD1A2890021F8
:104CF00004F13800FFF73FFE4AF6552104F2362052
:104D0000FFF7CFFF144904F13800FFF7BEFF134946
:104D100004F50770FFF7B9FF04F50870A169FFF704
:104D2000B4FF04F509706169FFF7AFFF606A401CCA
:104D300060636078012304F13801626BFEF756FA74
:104D400000202071607800221146FEF7E3F900B1DF
:104D50000125284670BD00005252614172724161C6
:104D600070B504460025E078E8B16078012304F1CD
:104D70003801626BFEF73AFAA0B90020E070A16A30
:104D8000606B401A216A88420DD2A07802280AD1AD
:104D9000236A616BCA186078012304F13801FEF7B9
:104DA00025FA00E00125284670BD70B504460D4681
:104DB00009268CB1206878B12068007860B1A0889D
:104DC0002168C988884207D121684878FEF700FA2F
:104DD00000F0010000B900260EB9206800E00020B4
:104DE0002860304670BD01030507090E1012141625
:104DF000181C1E809A45418E418F80454545494982
:104E0000498E8F9092924F994F555559999A9B9CE4
:104E10009D9E9F41494F55A5A5A6A7A8A9AAABACA1
:104E2000ADAEAFB0B1B2B3B4B5B6B7B8B9BABBBC3A
:104E3000BDBEBFC0C1C2C3C4C5C6C7C8C9CACBCC2A
:104E4000CDCECFD0D1D2D3D4D5D6D7D8D9DADBDC1A
:104E5000DDDEDFE0E1E2E3E4E5E6E7E8E9EAEBEC0A
:104E6000EDEEEFF0F1F2F3F4F5F6F7F8F9FAFBFCFA
:104E7000FDFEFF00010004001000400000010002E0
:104E800000000100020004000800100020000000E3
:104E9000C700FC00E900E200E400E000E500E700F4
:104EA000EA00EB00E800EF00EE00EC00C400C500F3
:104EB000C900E600C600F400F600F200FB00F900AD
:104EC000FF00D600DC00A200A300A500A7209201ED
:104ED000E100ED00F300FA00F100D100AA00BA00F1
:104EE000BF001023AC00BD00BC00A100AB00BB00A4
:104EF0009125922593250225242561256225562595
:104F000055256325512557255D255C255B251025F5
:104F1000142534252C251C2500253C255E255F25E0
:104F20005A25542569256625602550256C25672559
:104F300068256425652559255825522553256B2557
:104F40006A2518250C25882584258C259025802503
:104F5000B103DF009303C003A303C303B500C4037D
:104F6000A6039803A903B4031E22C603B50329228E
:104F70006122B1006522642220232123F700482208
:104F8000B0001922B7001A227F20B200A025A0008D
:104F900061001A03E0001703F8000703FF00010097
:104FA00078010001300132010601390110014A0186
:104FB0002E017901060180014D0043028101820129
:104FC00082018401840186018701870189018A01A8
:104FD0008B018B018D018E018F0190019101910157
:104FE00093019401F60196019701980198013D0201
:104FF0009B019C019D0120029F01A001A001A20133
:10500000A201A401A401A601A701A701A901AA0167
:10501000AB01AC01AC01AE01AF01AF01B101B20116
:10502000B301B301B501B501B701B801B801BA01C7
:10503000BB01BC01BC01BE01F701C001C101C2013D
:10504000C301C401C501C401C701C801C701CA0128
:10505000CB01CA01CD011001DD0101008E01DE018D
:105060001201F3010300F101F401F401F801280138
:10507000220212013A020900652C3B023B023D026A
:10508000662C3F0240024102410246020A015302DD
:10509000400081018601550289018A0158028F0171
:1050A0005A0290015C025D025E025F02930161029E
:1050B000620294016402650266026702970196012A
:1050C0006A02622C6C026D026E029C017002710217
:1050D0009D01730274029F017602770278027902C1
:1050E0007A027B027C02642C7E027F02A60181028E
:1050F0008202A9018402850286028702AE0144026F
:10510000B101B20145028D028E028F02900291021E
:10511000B7017B030300FD03FE03FF03AC030400A0
:105120008603880389038A03B1031103C2030200C3
:10513000A303A303C4030803CC0303008C038E035F
:105140008F03D8031801F2030A00F903F303F403F1
:10515000F503F603F703F703F903FA03FA03300440
:10516000200350041007600422018A043601C104A0
:105170000E01CF040100C004D004440161052604DF
:1051800000007D1D0100632C001E9601A01E5A0127
:10519000001F0806101F0606201F0806301F0806FD
:1051A000401F0606511F0700591F521F5B1F541F47
:1051B0005D1F561F5F1F601F0806701F0E00BA1F7D
:1051C000BB1FC81FC91FCA1FCB1FDA1FDB1FF81F59
:1051D000F91FEA1FEB1FFA1FFB1F801F0806901F15
:1051E0000806A01F0806B01F0400B81FB91FB21F91
:1051F000BC1FCC1F0100C31FD01F0206E01F020608
:10520000E51F0100EC1FF31F0100FC1F4E210100F0
:10521000322170211002842101008321D0241A053B
:10522000302C2F04602C0201672C0601752C020122
:10523000802C6401002D260841FF1A0300000000A5
:10524000605200080000002054000000A025000863
:10525000B4520008540000200C310000B0250008B2
:10526000000000000000000000000000000000003E
:10527000000000000000000000000000000000002E
:10528000007A030A0000000000000000010203048D
:1052900006070809000000000102030401020304DC
:1052A00006070809000000000000000000000000E0
:0452B00000000000FA
:040000050800018965
:00000001FF
