:020000040800F2
:1000000000040020B9020008BB020008BA02000880
:10001000BA020008BA020008BA020008BA020008D0
:10002000BA020008BA020008BA020008812C0008CF
:10003000BA020008BA020008BA020008BA020008B0
:10004000BA020008BA020008BA020008BA020008A0
:10005000BA020008BA020008BA020008BA02000890
:10006000BA020008BA020008BA020008BA02000880
:10007000BA020008BA020008BA020008BA02000870
:10008000BA020008BA020008BA020008BA02000860
:10009000BA020008BA020008BA020008BA02000850
:1000A000BA020008BA020008BA020008BA02000840
:1000B00091160008BA020008BA020008BA02000845
:1000C000BA020008BA020008BA020008BA02000820
:1000D000BA020008BA020008F1140008BA020008C7
:1000E000BA020008BA020008BA020008BA02000800
:1000F000BA020008BA020008BA020008BA020008F0
:10010000BA020008BA020008BA020008BA020008DF
:10011000BA020008BA020008BA020008BA020008CF
:10012000BA020008BA020008BA020008BA020008BF
:10013000BA020008BA020008BA020008BA020008AF
:10014000BA020008BA020008BA020008BA0200089F
:10015000BA020008BA020008BA020008BA0200088F
:10016000BA020008BA020008BA020008BA0200087F
:10017000BA020008BA020008BA020008BA0200086F
:10018000BA020008BA020008BA020008BA0200085F
:10019000BA020008BA020008BA020008BA0200084F
:1001A000BA020008BA020008BA020008BA0200083F
:1001B000BA020008BA020008BA020008BA0200082F
:1001C000BA020008BA020008BA020008BA0200081F
:1001D000BA020008BA020008BA020008BA0200080F
:1001E00072B6274880F30888264880F30988264895
:1001F0004EF60851CEF200010860022080F3148808
:10020000BFF36F8F01F0DCFA01F032F84FF0553098
:100210001E491B4A91423CBF41F8040BFAE71C49B6
:10022000184A91423CBF41F8040BFAE719491A4AAF
:100230001A4B9A423EBF51F8040B42F8040BF8E700
:1002400000201749174A91423CBF41F8040BFAE7D6
:1002500001F06EFA01F0ACFA134C144DAC4203DA23
:1002600054F8041B8847F9E703F05AFA104C114D73
:10027000AC4203DA54F8041B8847F9E701F090BA5E
:1002800000040020000800200000000800000020FA
:1002900000040020509A0008000800208C0800206C
:1002A00090080020F0130020E0010008E0010008A1
:1002B000E0010008E001000892E700F000F8FEE726
:1002C0002DE9F04FC1F80CD0C3689D46BDE8F08F12
:1002D000002383F311882846A047002000F0F0FC9B
:1002E00000F0DEF900DFFEE7844641EA000313F088
:1002F00003036DD1403A41D351F8043B40F8043B2D
:1003000051F8043B40F8043B51F8043B40F8043BEF
:1003100051F8043B40F8043B51F8043B40F8043BDF
:1003200051F8043B40F8043B51F8043B40F8043BCF
:1003300051F8043B40F8043B51F8043B40F8043BBF
:1003400051F8043B40F8043B51F8043B40F8043BAF
:1003500051F8043B40F8043B51F8043B40F8043B9F
:1003600051F8043B40F8043B51F8043B40F8043B8F
:1003700051F8043B40F8043B403ABDD2303211D32F
:1003800051F8043B40F8043B51F8043B40F8043B6F
:1003900051F8043B40F8043B51F8043B40F8043B5F
:1003A000103AEDD20C3205D351F8043B40F8043B2F
:1003B000043AF9D2043208D0D2071CBF11F8013B2D
:1003C00000F8013B01D30B8803806046704700BFF3
:1003D000082A13D38B078DD010F003038AD0C3F102
:1003E0000403D21ADB071CBF11F8013B00F8013BE4
:1003F00080D331F8023B20F8023B7BE7043AD9D3A3
:10040000013A11F8013B00F8013BF9D20B78037077
:100410004B7843708B788370604670470000000013
:10042000F0B4202383F311880D4D2F686C684E1EA5
:100430003A448319494290190B4008400344A342AF
:1004400007D89F4205D82B60002383F31188F0BCA6
:1004500070470020002383F31188F0BC704700BF71
:1004600068090020000000000000000000000000FB
:10047000202383F3118890F82030072B0ED8DFE873
:1004800003F0280D0D2408040D08426A9368013317
:10049000936090E80C001A600268536010B4002268
:1004A0004FF0FF3481680D4B446280F820201B68B8
:1004B0009A688A42FBD25A68426003600021106049
:1004C000586081F3118810BC7047436A00221A609B
:1004D000E4E7002383F31188704700BF2C1200204B
:1004E000FEE700BF00000000000000000000000068
:1004F000024AD36843F08003D36070470044004051
:100500000020704700000000000000000000000014
:10051000202383F31188044B9B695A6B1043586363
:10052000002383F3118870472C1200200000000084
:10053000202383F31188024602E08B4207D01A463B
:1005400013689842F9D1002383F3118870470B6830
:100550001360002383F31188704700BF0000000080
:100560000E4B0F4A5B68C168F0B48768566F4268EB
:10057000D0E90445DB1B9B1BE41845F100059342C1
:10058000026888BF436001319342C0E90445C160FD
:10059000836038BF0360F0BC704700BF001000E00C
:1005A0002C120020000000000000000000000000ED
:1005B00070B5202383F31188124A10689469836808
:1005C000A1688B4203D2002383F3118870BD0368B6
:1005D0001360012600255A6080F82060906184F83D
:1005E000205000E01B689A689142FBD95A6862600B
:1005F0002360214614605C60FFF762FE002383F3F2
:10060000118870BD2C1200200000000000000000C6
:10061000836841691E4AF0B5456806690468C76881
:1006200043F8382C012003F8260C4FF0020E00206E
:1006300003F828EC03F8270C43F8304C43F82C5C03
:10064000A3F16C045569DFF84CE043F86C6C43F897
:10065000681C43F83C4CA3F14801A3F11C04A3F12E
:10066000200643F8100C43F8140C43F8407C43F880
:100670000C7C43F84CEC43F8345C0846296151612A
:1006800043F8206C43F81C4C43F8184CF0BD00BFF5
:100690002C120020D1020008000000000000000021
:1006A0000E4A1068036830B4012194695A6000252D
:1006B00080F82010A1681360906184F8205000E059
:1006C0001B689A689142FBD35A6862602360214696
:1006D00014605C6030BCFFF7F3BD00BF2C1200203B
:1006E000044B1A689B6992689B689A4200D87047CD
:1006F000FFF7D6BF2C120020000000000000000011
:1007000010B5202383F31188084B9B69DC6B996833
:100710008C4201D0814200D29860D863FFF7E0FF9D
:10072000002383F31188204610BD00BF2C12002047
:10073000164B70B404469D694162A868A168814265
:100740004FF000020CD884F820201B689A68914270
:10075000FBD95A686260236014605C6070BC7047AB
:1007600085F820201A46126891688842FBD95068A3
:10077000686001262A600560556084F8206029467B
:1007800020469C6170BCFFF79BBD00BF2C1200206F
:1007900008B5202383F3118883680133002B83601D
:1007A00003DD002383F3118808BD03460068026857
:1007B0001A6000215360FFF7BBFF002383F3118809
:1007C00008BD00BF000000000000000000000000A5
:1007D000084B99691A6810B481F8200010681860F5
:1007E0000124436082F82040104610BC9A61FFF754
:1007F00067BD00BF2C1200200000000000000000B8
:1008000010B5202383F311880C4CA269134653F8CA
:100810002C0F984209D00168D1620D224B60002351
:1008200080F8202083F3118810BD0E20FFF7D0FF41
:10083000A269D06A02F12C03EDE700BF2C12002060
:10084000202383F311888368013B002B836004DB42
:100850000020002383F31188704710B5084CA2696B
:10086000506241685160034610600A6005205A607A
:10087000FFF7AEFFA369586A002383F3118810BD08
:100880002C1200200000000000000000000000000A
:1008900000228168084B10B4044680F820201B68B1
:1008A0009A688A42FBD25A686260236020461460CC
:1008B0005C6010BC704700BF2C12002000000000DC
:1008C0000E4B10B520229C6982F311886162026B85
:1008D000626000F12C012160146090F82020046314
:1008E0000E2A07D00C20FFF773FF606A002383F302
:1008F000118810BDFFF7CCFFF4E700BF2C120020D9
:10090000436B90F8202019430A2A416309D00B2A2F
:1009100000D07047436A8B43FBD100234362FFF74B
:10092000B7BF436A1942F8D1704700BF000000000A
:1009300070B50468A0420FD006460D46E3682B430D
:10094000E36015B12269134203D0A1686068FFF724
:10095000D7FF2468A642F1D170BD00BF000000009F
:10096000124B30B4044605689869E3688363A54276
:1009700017D0C16B4BB11A68934203D09268914271
:1009800038BF1146DB68002BF5D12B68AA6B81605C
:10099000236028465C60A560E260AC6330BCFFF772
:1009A00077BF0023AB6030BC704700BF2C12002023
:1009B000174B70B59D69202383F311880468C368C1
:1009C000AB6384421DD0E96B4BB11A68934203D0EC
:1009D0009268914238BF1146DB68002BF5D103467F
:1009E0002268A66BA96020461A6053609C60DE6096
:1009F000A363FFF74DFFFFF773FE002383F3118816
:100A000070BD0023A360002383F3118870BD00BF75
:100A10002C12002000000000000000000000000078
:100A2000304B826870B59C69002A56D0A1689368E3
:100A30009942054607D992F820309160062B33D0B1
:100A4000072B1DD09BB12B4603E09968A268914209
:100A500002D31B689D42F8D15A686260236014601B
:100A60005C6065620620BDE87040FFF7B1BE92E8A9
:100A70000A001960116810464B60FFF709FFE2E7B2
:100A800092E80900186010684360566A334602E035
:100A90009868814202D81B689E42F9D1596851601A
:100AA00013600A605A60CEE792E809001860106887
:100AB0004360566A334602E09868814202D81B6858
:100AC0009E42F9D15968516013600A605A60B26859
:100AD000A16893688B42AED3B5E7A36BC360846013
:100AE000A06370BD2C120020000000000000000078
:100AF00008B5202383F31188FFF792FF002383F3C7
:100B0000118808BD00000000000000000000000087
:100B1000F8B550F8043C50F8085C0733DB0805F1E1
:100B20000C0740F8043C0646A0F10804043538469A
:100B3000FFF7DEFF2B46AB421A6801D0A34202D278
:100B40001AB1944201D31346F5E746F8082C1C600D
:100B500016E90500013204EBC20181420AD059684E
:100B60004A1C03EBC202944212D03846BDE8F8405A
:100B7000FFF71EBF4968114446F8041C54F83220A0
:100B800046F8082C59684A1C03EBC2029442ECD187
:100B900056F8042C01321144596056F8082C1A609A
:100BA0003846BDE8F840FFF703BF00BF0000000073
:100BB000202282F3118890F82230013B80F8223005
:100BC000036A03F0FF130F2B03D0002383F3118874
:100BD00070474369016910B41961046900216361B8
:100BE00081F3118890F8213003F00303012B0CD01E
:100BF000022B08D1036CC06982F311881A68026065
:100C0000186081F3118810BC7047C06910BCFFF7F1
:100C10007FBF00BF000000000000000000000000D7
:100C200038B50446202383F3118890F820300F2B29
:100C300007D0084B826A9B6909201A60A362FFF7FC
:100C4000C7FD656A002383F311882046FFF7B0FFD4
:100C5000284638BD2C1200200000000000000000D3
:100C600083680133002B836000DD704703681A68D6
:100C700002600021506018465962FFF709BE00BFAC
:100C800070B5202383F31188846881600134002CBF
:100C90000CDC05466FF00106686843686B601D60F8
:100CA000FFF7F6FD0134012C4662F5D1FFF718FD80
:100CB000002383F3118870BD0000000000000000D5
:100CC00038B52022034682F31188104A9469A06A3D
:100CD000636204F12805854206D00368A362FFF72A
:100CE000D7FDA06AA842F8D194F8223043B994F80D
:100CF00021309B0704D1636922691A61226953611B
:100D00000F20BDE83840FFF763BD00BF2C12002064
:100D10001A4BDA69824210B40FD0416802680A6047
:100D200002681C3300249A425160C46003D0816879
:100D300093680B44936010BC70471846116840F8E4
:100D40001C1F002481424860D46013D094688A68D4
:100D50009B6A14444FF080428C60526AD21A9442CB
:100D6000E9D9A11A012998BF941C4FF0804223446D
:100D70005363E0E74FF08043DC60DCE72C12002097
:100D8000F0B41C4D2E46022956F81C4F03614FF05B
:100D9000804738BF0221B442C2607B6A1CD0AA6A75
:100DA0009B1A5918A36812D32468C91AA3688B42E6
:100DB000FAD3636843600460186060608160A36870
:100DC0004FF0FF32591AA1606A62F0BC7047994235
:100DD000EDD20A447A63EAE7AB625E18002202238E
:100DE000E86128620460446081607E633A61FB6070
:100DF000EBE700BF2C120020000000000000000004
:100E000030B54B1C87B012D00C4C0D4AA369054677
:100E100001A8FFF7B5FF2846FFF7DAFC049B13B1E2
:100E200001A8FFF775FFA369586A07B030BD034CEE
:100E3000FFF7CEFCA369586A07B030BD2C12002022
:100E40007104000800000000000000000000000025
:100E500061B1084B10B4024644689B69042083E8E2
:100E600014002360536010BCFFF7CABF4FF0FF307F
:100E7000704700BF2C12002000000000000000009E
:100E80002DE9F04F83B017460193D0F81CA04FF026
:100E9000200B8BF31188002A51D004460E464FF0E8
:100EA000000817E02A463146FFF71EFAE36863613F
:100EB000A3685B1BA3606DB3BAF1000F01D020469D
:100EC000D047002383F31188A8442E448BF3118864
:100ED000474525D9A36860699F4223698CBFA568EF
:100EE0003D461B1AAB4222D8DCD21A463146A5EB4E
:100EF00003090093FFF7F8F9009BE068F1184A46F0
:100F0000FFF7F2F9E3684B446361A3685B1BA360DE
:100F1000002DD1D101992046FFF79AFF0028D7D0A4
:100F2000002383F31188404603B0BDE8F08F2A46C2
:100F30003146FFF7D9F963692B446361B8E79046FE
:100F4000EEE700BF0000000000000000000000000D
:100F50003030FFF795BF00BF000000000000000028
:100F600030304FF0FF33FFF78BBF00BF00000000B1
:100F7000F8B504460F461646202383F3118803E094
:100F8000FFF766FF002819DBA56831462046002DD3
:100F9000F6D06269A368511C013B6161A3601770C0
:100FA000236962699A4224BFE3686361E3690BB114
:100FB00020469847002080F31188F8BD85F31188FA
:100FC000F8BD00BF000000000000000000000000AD
:100FD0003030FFF7CDBF00BF000000000000000070
:100FE00030304FF0FF32FFF7C3BF00BF00000000FA
:100FF0002DE9F04F83B017460193D0F81CA04FF0B5
:10100000200B8BF31188002A51D004460E464FF076
:10101000000817E02A463046FFF766F9E368A36147
:10102000A3685B1BA3606DB3BAF1000F01D020462B
:10103000D047002383F31188A8442E448BF31188F2
:10104000474525D9A368A1699F4223698CBFA5683C
:101050003D465B1AAB4222D8DCD21A463046A5EB9D
:1010600003090093FFF740F9009BE168F0184A4636
:10107000FFF73AF9E3684B44A361A3685B1BA360E5
:10108000002DD1D101992046FFF7E2FE0028D7D0EC
:10109000002383F31188404603B0BDE8F08F2A4651
:1010A0003046FFF721F9A3692B44A361B8E79046C6
:1010B000EEE700BF0000000000000000000000009C
:1010C0000C30FFF795BF00BF0000000000000000DB
:1010D0000C304FF0FF33FFF78BBF00BF0000000064
:1010E00070B5202304460E4683F3118803E0FFF712
:1010F000AFFE00281ADBA56831462046002DF6D049
:10110000A169A36820694A1C013B8242A360A261D5
:1011100028BFE3680D7828BFA361E3690BB12046BF
:101120009847002383F31188284670BD85F3118802
:1011300070BD00BF000000000000000000000000C3
:101140000C30FFF7CDBF00BF000000000000000022
:101150000C304FF0FF31FFF7C3BF00BF00000000AD
:1011600008B50146202383F311880820FFF748FEC5
:10117000002383F3118808BD000000000000000078
:1011800010B5EFF30584C4F308041CB1002383F306
:10119000118810BDFFF7A4FA84F3118810BD00BFB9
:1011A000EFF30583202383F31188704700000000CC
:1011B000C20710B412D52C4A1168914242D00023C4
:1011C0000968914203F10103FAD14C688C4236D090
:1011D0006468944203F1FF33FAD183BB830714D5CB
:1011E000214A144654F81C1FA14231D0002309683B
:1011F000A14203F10103FAD1126A8A421FD0526858
:10120000A24203F1FF33FAD1CBB910F0040014D09D
:10121000154A1369934221D000201B69934200F1C3
:101220000100FAD15969994209D04969914200F106
:10123000FF30FAD1003018BF012010BC70470120E8
:1012400010BC70475468944218BF0023C0D1C5E752
:10125000126AA24218BF0023D1D1D6E75969994238
:101260004FF00000E1D1E8E72C1200200000000060
:10127000864ADFF84CC211692DE9F04340F2FF19AC
:10128000002341EA090111611361116B804F814E06
:10129000814DDFF830E2814C41EA09011163116DA3
:1012A00041EA0909C2F850906FF4A849CCF804301B
:1012B000CCF80890DFF81092CCF80C904FF6FF7144
:1012C000DFF80892CCF81410CCF82090DFF80092E8
:1012D000CCF8249009F12A5909F5B019CCF80090FE
:1012E0004FF4107CC7F804C04FF0FF30DFF8E4C1C2
:1012F000B860C7F80CC04FF0806C7961C7F820C0A7
:10130000DFF8D4C14FF04008C7F82480C7F800C008
:101310000CF1AA4CACF5430CACF62C3C7360B060FD
:10132000C6F80CC04FF0C04C7161C6F820C0DFF8A1
:10133000ACC1C6F824C0DFF8A8C1C6F800C0DFF809
:10134000A4C16B60A860C5F80CC040F6FF7CC5F86E
:1013500014C007F58057DFF890C12B6206F5805660
:101360006B62C5F800C005F58055DFF838C1CEF8CE
:101370000430CEF80800CEF80C30CEF81410CEF8B9
:101380002030CEF82430CEF800807B604FF0805EB5
:10139000B860FB6079613B627B623B604FF4404721
:1013A0007360B060F36071613362736233606B606D
:1013B000A860EB6069612B626B622B606360A06068
:1013C000E3606161236263622360C2F840E0CCF8AD
:1013D0000070136843F00103136013461A68940702
:1013E000FCD59968294A21F003019960936813F0AC
:1013F0000C03FBD11068254900F0F90010609360E0
:10140000136843F4803313600B689803FCD54B6F6B
:101410001E4A43F001034B67536F9907FCD5204BDD
:10142000536013681F4943F0807313604B685A047C
:10143000FCD5164A13689B01FCD51B4B1B499160D8
:101440001A681B4B9A4217D01A4B40F205721A6069
:101450000E4A936843F002039360936803F00C0311
:10146000082BFAD1536C43F480435364536E43F416
:1014700080435366BDE8F0830F4A104B12689A42CE
:10148000E2D10C4B40F205121A60E1E7003802404D
:101490000004024000080240000C0240002002400C
:1014A0000854400700700040002004E00094883891
:1014B00011640020003C024000ED00E041C20F41F9
:1014C0000000024000100240540001400000565548
:1014D00000AA0A00154551558020080000060600A4
:1014E0000180200255505500000100550000000009
:1014F0002DE9F043624D6E6FD6F80C903368DA0533
:1015000083B09CB277D4202383F3118814F02F0F7B
:1015100042D05C4F07F1080807E0A00673681DD4AD
:101520003468A4B214F02F0F36D02307F5D014F08E
:10153000080F0CBF00218021E00748BF41F02001C7
:10154000A20748BF41F04001630748BF41F48071E2
:101550003846FFF7EDF9A0067368E1D56A6995F89A
:101560007840002A34D02A6A696A8A423AD0696986
:101570002340501C01312862696113702A6AEB69AB
:101580009A4201D3AB692B62404604F0A1FD346856
:10159000A4B214F02F0FC8D1002383F3118819F0DF
:1015A000800F01D0220635D419F0400F0BD063060E
:1015B00009D5202383F311886A6CAB6C9A4243D01F
:1015C000002383F3118803B0BDE8F04301F028BB8A
:1015D000042138460193FFF7ABF92A6A696A019B37
:1015E0008A42C4D169690029C1D04FF4806138466C
:1015F000FFF79EF994E7202383F311884FF40071DD
:10160000281DFFF795F96FF480733360002383F38F
:10161000118878E7202383F31188AB6C6A6C9A42B7
:101620001FD0AA6B296C581C0132AA63A864884297
:101630001F7801D3EB6BAB64134804F049FD77606E
:10164000002383F31188AFE7AB6B002BB8D01021D8
:101650000C48FFF76DF94FF6BF7309EA0303F36017
:10166000AEE7AA6B002ADCD008210648FFF760F934
:101670004FF63F7309EA030343F04003F360DFE7EB
:10168000581300205C130020881300200000000085
:101690002DE9F0474FF080473B699B0703D4BDE835
:1016A000F04701F0BDBA00213961202383F311888E
:1016B0001E4CA146B84659F81C3F9A680F46D8F808
:1016C0002400A16A451A95421BD320261868D3F836
:1016D0000CA011444845A162A5EB0205C0F8049096
:1016E000E061DF6008BFC8F80C7087F311881869E3
:1016F000D04786F31188E3699A689542DFD3A16ADF
:10170000E4E7E2694A450AD09168A0624D1B956002
:101710009B68022B2CBFC0180230C8F8340000238D
:1017200083F31188BDE8F04701F07ABA2C1200204B
:10173000F0B5134F134D144C144B154907F1700EAF
:1017400000269C4211D904391A4651F8040F42F878
:10175000040B9442F9D8DA43144424F0030404340B
:1017600023449D4203D943F8046B9D42FBD877453F
:1017700004D007F110013AC91037E2E7F0BD00BF0D
:1017800058780008F0130020F0130020F013002018
:10179000DC9A0008000000000000000000000000CB
:1017A000FEE700BF00000000000000000000000095
:1017B000704700BF000000000000000000000000B3
:1017C000704700BF000000000000000000000000A3
:1017D0000B4B0C4AD91D21F00701CB1AC3F5CC6382
:1017E0000020DB0810B44B6002F10C04516008606B
:1017F0009060D46014611060506110BC704700BFED
:10180000F80A00200413002000000000000000007F
:10181000064A074B07491260002009604960526080
:10182000906098601B605B60704700BF54080020A8
:101830000808002030080020000000000000000020
:10184000044B054A1B600021126052605B60996086
:10185000704700BF5408002030080020000000003E
:10186000F8B5104B104F01261E600725002425FAFD
:1018700004F3DB0704D4013425FA04F3DB07FAD5BB
:1018800006FA04F3204625EA030557F82430984762
:101890000134002DEBD105490548BDE8F84001F0C1
:1018A00067B900BFD8130020D87800081479000861
:1018B000287900080000000000000000000000007F
:1018C000F0B5404B404C9B6940489E6885B0022370
:1018D00003A902AA236001F023FB0546A0F1010041
:1018E000B0FA80F040093A4901F06AF908B105B050
:1018F000F0BD032237492260374B384F721E4FF438
:10190000A47004F03DFE3860003018BF0120344957
:1019100001F056F90028EAD10422324B3249226004
:101920004FF4A470B21E04F02BFE0346003018BF23
:1019300001202B497B6001F043F90028D7D1052015
:101940002A4B2B492060F21E4FF0004004F018FE95
:101950000346B0FA80F040092649BB6001F030F937
:101960000028C4D10623236000F0FAFD2249234851
:1019700001F0FEF80028BAD1072301A96A461348EE
:10198000236001F0CDFA281AB0FA80F01C49400912
:1019900001F016F90028AAD10398019B1949C01A31
:1019A000B0FA80F0400901F00BF900289FD10298AD
:1019B000009B1549C01AB0FA80F0400901F000F907
:1019C00095E700BF2C120020D8130020041300203C
:1019D0009C790008B0790008AC79000860110020FB
:1019E000B8790008D0790008D4790008DC790008BB
:1019F000E0790008E879000814790008047A000802
:101A0000087A0008207A00083C7A000800000000EC
:101A100005F046B9000000000000000000000000D2
:101A20002DE9F047364CDFF8E890246002218AB0B7
:101A3000C9F80010202686F31188324823680AAFBF
:101A4000012247F8143D8369069300254FF0FF33C8
:101A5000079227600895099385F3118886F311880A
:101A60000DF12808226848F8282D82690192029118
:101A700003950493C4F8008085F3118886F31188D8
:101A800020682149001B18BF012001F099F820B1FE
:101A900085F311880AB0BDE8F087824680F311888B
:101AA000032339462046C9F80030FEF741FD86F38E
:101AB000118820681449001B18BF012001F080F82C
:101AC000054620B18AF311880AB0BDE8F08780F39B
:101AD0001188042341462046C9F80030FEF728FD4E
:101AE00086F3118820680949001BB0FA80F040098C
:101AF00001F066F80028CBD180F31188CAE700BF57
:101B0000000800202C120020F87800080479000852
:101B1000D8130020000000000000000000000000BA
:101B200008B504F04DFC024A024B12601B6008BD70
:101B30000008002004080020000000000000000051
:101B400004F03EBC000000000000000000000000A7
:101B5000FFF7F6BF000000000000000000000000DA
:101B6000FFF7EEBF000000000000000000000000D2
:101B7000FFF7E6BF000000000000000000000000CA
:101B8000FFF7DEBF000000000000000000000000C2
:101B90002DE9F04F3C4D01238BB02B60202282F3C6
:101BA0001188DFF80481394FD8F80000B96907932C
:101BB0000AAE002346F8140D4FF0FF300691C8F826
:101BC00000600893099083F3118882F31188DFF88D
:101BD000DC90BA69D9F8001003930AAC4FF0040AFC
:101BE00044F8281D04900192C9F80040CDF808A0DF
:101BF00083F3118802232B6000F0A2FCBA69244B06
:101C00009168244A83460139234804F0C1FA234AE3
:101C1000032310602B6004F01BFC0BF502710BF525
:101C2000FA7004F0EDFF10B10BB0BDE8F08F04F0D6
:101C3000C7FBB0FA80F04009194900F0C1FF002845
:101C4000F2D100F08DFC31464046C5F800A0FEF709
:101C50006FFC21464846FEF76BFCD8F8000011499E
:101C6000A0EB0800B0FA80F0400900F0A9FF0028BE
:101C7000DAD1D9F800000B49A0EB0900B0FA80F0E6
:101C8000400900F09DFFCFE7D81300202C12002060
:101C9000AC790008C1200008F80A0020601100207B
:101CA000907900080479000800080020040800204A
:101CB00070B5574D574C01202860A269202383F34B
:101CC0001188536B33B983F31188534900F078FFBF
:101CD00080B170BD5842184023EA000353630023CB
:101CE00083F31188B0FA80F040094B4900F068FF97
:101CF0000028EED1A369202282F311885A6B002AB2
:101D000072D0586380F31188434900F059FF0028CE
:101D1000DFD1A369202282F311885A6B013267D088
:101D200080F3118801203C4900F04AFF0028D0D1FF
:101D300002232B60A669202383F31188756B55B9A4
:101D40004FF0FF3373624FF4FA710A20FFF758F82F
:101D5000002851DB756B6842284025EA0005756351
:101D6000002383F31188B0FA80F040092A4900F07B
:101D700027FF0028ADD1A669202383F31188756B56
:101D800055B94FF0FF3373624FF4FA710A20FFF731
:101D900037F8002834DB756B0023736383F31188F5
:101DA000B5FA85F040091C4900F00AFF05460028F5
:101DB0008FD1A469202383F31188636B013309D089
:101DC0004FF0FF3363624FF4FA710B20FFF718F8FE
:101DD000002819DB0023636383F3118828460E492A
:101DE000BDE8704000F0ECBE82F3118801208BE763
:101DF000586380F3118896E785F311880120B5E7D1
:101E000085F311880120CEE785F311880125E5E7E8
:101E1000D81300202C120020807900080000000058
:101E200038B52B4C012305202360FEF771FB0223FC
:101E3000236004F00DFBA0F10500B0FA80F0254905
:101E4000400900F0BDFE00B138BD04F0B9FAB0FAA7
:101E500080F04009204900F0B3FE0028F4D10323AC
:101E600004202360FEF754FB0423236000F068FB8A
:101E70001A4B1B4A9B69996805460139194804F0B9
:101E800087F9194A05232360106004F0E1FA05F58B
:101E90000271044605F5FA7004F0B2FE0028D3D1B1
:101EA000A4F10500B0FA80F04009104900F088FE66
:101EB0000028C9D104F084FAB0FA80F0400906493C
:101EC00000F07EFE0028BFD1BDE8384000F048BBDE
:101ED000D813002054790008907900082C120020B3
:101EE00001210008F80A0020601100206C79000828
:101EF00038B5294C012305202360FEF709FB022396
:101F0000236004F08DFAA0F10500B0FA80F02349B7
:101F1000400900F055FE00B138BD04F051FAB0FAA6
:101F200080F040091E4900F04BFE0028F4D1032345
:101F3000236000F005FB1B4B1B4A9B699968054613
:101F400001391A4804F024F9194A04232360106067
:101F500004F066FA05F50271044605F5FA7004F01E
:101F60004FFE0028D8D1A4F10100B0FA80F040095A
:101F7000104900F025FE0028CED104F021FAB0FA75
:101F800080F04009064900F01BFE0028C4D1BDE8DE
:101F9000384000F0E5BA00BFD8130020547900089B
:101FA000907900082C12002001210008F80A002076
:101FB00060110020407900080000000000000000CF
:101FC00038B5354C012307202360FEF7A1FA022320
:101FD000236004F005FAA0F10100B0FA80F02F4967
:101FE000400900F0EDFD00B138BD04F0F9F9A0F1B1
:101FF0000200B0FA80F02949400900F0E1FD002814
:10200000F2D104F0EDF9A0F10400B0FA80F0234918
:10201000400900F0D5FD0028E6D104F0D1F9B0FA6E
:1020200080F040091E4900F0CBFD0028DCD10323DD
:10203000236000F085FA1B4B1B4A9B699968054693
:1020400001391A4804F0A4F8194A042323601060E7
:1020500004F0C6F905F50271044605F5FA7004F0BE
:10206000CFFD0028C0D1A4F10100B0FA80F04009F2
:10207000104900F0A5FD0028B6D104F0A1F9B0FA8E
:1020800080F04009064900F09BFD0028ACD1BDE876
:10209000384000F065BA00BFD81300202C79000842
:1020A000907900082C12002001210008F80A002075
:1020B00060110020407900080000000000000000CE
:1020C00038B5202585F3118800210B48FEF730FC38
:1020D0000024FEF705FB84F311884FF4FA70FFF734
:1020E0003FF885F3118805482146FEF721FCFEF7ED
:1020F000F7FA84F3118838BD000800200408002096
:1021000010B504464FF4FA70FFF72AF8202383F342
:10211000118801212046FEF7F3FBFEF7E1FA0023C8
:1021200083F3118810BD00BF000000000000000014
:10213000432000F045BA00BF00000000000000008E
:10214000422000F03DBA00BF000000000000000087
:10215000412000F035BA00BF000000000000000080
:1021600010B541210446FEF7ABFB20464221FEF7A5
:10217000A7FB20464321FEF7A3FB20464421BDE8F0
:102180001040FEF79DBB00BF0000000000000000F3
:10219000F8B5144B144C9B69144A996814480131E2
:1021A0000125256003F0F4FF124A0223236010602A
:1021B000042420270026FEF723FB456A87F31188B5
:1021C0002946FEF7B5FA86F31188E8B200F0F8F96F
:1021D000013CF0D100F0C4F907490848BDE8F840D7
:1021E00000F0C6BC2C120020D8130020612100088A
:1021F000F80A00206011002014790008F078000827
:10220000F8B51C4B1C4E9B691C4C9F681C4A1D4B0F
:102210001D4D791C4FF0020E3046C4F800E003F06B
:10222000B7FF4FF0030E2860B91C06F5A470174BDA
:10223000174AC4F800E003F0ABFFF91C154A6860C8
:10224000042706F52470144B276003F0A1FF052333
:10225000A860236004F084F80623236004F080F86B
:102260000723236000F07CF90C490D48BDE8F840D5
:1022700000F07EBC2C120020F80A0020D8130020A9
:10228000514F0008AC79000860110020DC7900088B
:10229000E14F0008314F0008D07900081479000898
:1022A0002879000800000000000000000000000085
:1022B000F8B5264B264E9A6926489568264B274A3C
:1022C000274C691C0127376003F062FFA91C2060BE
:1022D000244B224A244803F05BFFE91C6060234B37
:1022E0001E4A234803F054FF291DA060214B1B4ABE
:1022F000214803F04DFF691DE060204B174A20483C
:1023000003F046FF022333602061202383F311880A
:102310001C4C2368A34218BF6FF0010509D01A684E
:10232000226018465460FEF7B3FA23684562A34260
:10233000F5D1FEF7D5F9002383F3118800F010F9E9
:1023400011491248BDE8F84000F012BC2C120020E0
:10235000D8130020F80A0020EC780008E14F0008AC
:1023600060110020E4780008400C0020DC790008AF
:10237000880D0020D0790008D00E0020AC7900082C
:10238000181000203008002014790008E8780008B0
:10239000284B9B692DE9F0419F68274E274DDFF8B8
:1023A000C080274B274C4FF0010E791C324628463F
:1023B000C8F800E003F0ECFEB91C2060324605F5D9
:1023C000A470214B03F0E4FEF91C6060324605F571
:1023D00024701E4B03F0DCFE391DA060324605F56B
:1023E00076701B4B03F0D4FE791DE060324605F594
:1023F000A460184B03F0CCFE0223C8F80030206123
:10240000202383F3118803F0C3FF03F0C1FF03F01F
:10241000BFFF03F0BDFF03F0BBFFFEF761F9002330
:1024200083F3118800F09CF80B490C48BDE8F0419B
:1024300000F09EBB2C120020E14F0008F80A00209B
:10244000EC78000860110020E4780008DC790008CE
:10245000D0790008AC79000814790008E878000801
:10246000D813002000000000000000000000000061
:10247000024B186803683021DB681847D41300202A
:10248000F0B40B4E376872687C1E4B1E4D420C44F4
:102490001918294004EA05000144914204D88F42EA
:1024A00002D83160F0BC70470020F0BC704700BF1C
:1024B000680900200000000000000000000000008B
:1024C0000A4602E0984206D01A4613688B42F9D1B8
:1024D0000020FEF71DBB03681360FEF719BB00BFA9
:1024E00020B370B584B06D466C46114E00E01446C2
:1024F000A6FB0023DB0803EB8301A0EB410000F106
:1025000030012246C9B202F8011B1846002BEED159
:10251000AA4209D9074E01E014F8011D306803688A
:10252000DB689847AC42F7D104B070BDFFF7A0BF9D
:10253000CDCCCCCCD4130020000000000000000063
:1025400008B50120FEF70CFE202383F311884FF01D
:1025500080420023506A83F3118808BD0000000008
:1025600070B5064C002604F11405206810B1FEF782
:1025700057FB26600434AC42F7D170BD60110020D7
:102580000B4B30B403F114002025002453F8042B26
:102590004AB185F3118892F8211041F0040182F8C4
:1025A000211084F311888342F0D130BC704700BF02
:1025B000601100200000000000000000000000008A
:1025C000202383F31188064A064913688B4202D2FE
:1025D000591C11601870002383F31188704700BFE5
:1025E000EC130020EC1300200000000000000000AD
:1025F00070B5017889B10A4D044628680368DB6824
:10260000984714F8011F0029F7D128680549036885
:1026100002225B68BDE870401847014DF5E700BF36
:10262000D4130020B0840008000000000000000067
:10263000017859B138B5064D044628680368DB684F
:10264000984714F8011F0029F7D138BD704700BF23
:10265000D413002000000000000000000000000073
:1026600038B5C34BC34CC44801251D60FFF7E0FFDC
:102670002020FFF735FF2046FFF7BAFFBF48FFF7DE
:10268000D7FF42F21070FFF72BFF2046FFF7B0FF95
:10269000BB48FFF7CDFF2020FFF722FF2046FFF7C2
:1026A000A7FFB848FFF7C4FF2020FFF719FF204617
:1026B000FFF79EFFB448FFF7BBFF0220FFF710FFB4
:1026C0002046FFF795FFB148FFF7B2FFFFF7D0FEB6
:1026D0002046FFF78DFFAE48FFF7AAFFFFF7C8FEC1
:1026E0002046FFF785FFAB48FFF7A2FFFFF7C0FECC
:1026F0002046FFF77DFFA848FFF79AFF2846FFF71F
:10270000EFFE2046FFF774FFA448FFF791FF28462D
:10271000FFF7E6FE2046FFF76BFFA148FFF788FFB3
:102720002846FFF7DDFE2046FFF762FF9D48FFF7D2
:102730007FFF2846FFF7D4FE2046FFF759FF9A484F
:10274000FFF776FF2846FFF7CBFE2046FFF750FF46
:102750009648FFF76DFFFFF78BFE2046FFF748FF17
:102760009348FFF765FF2846FFF7BAFE2046FFF7BC
:102770003FFF9048FFF75CFFFFF77AFE2046FFF728
:1027800037FF8D48FFF754FF2846FFF7A9FE204684
:10279000FFF72EFF8948FFF74BFF2846FFF7A0FE03
:1027A0002046FFF725FF8648FFF742FF2846FFF740
:1027B00097FE2046FFF71CFF8248FFF739FF2846A7
:1027C000FFF78EFE2046FFF713FF7F48FFF730FF2D
:1027D0002846FFF785FE2046FFF70AFF7B48FFF7F4
:1027E00027FFFFF745FE2046FFF702FF7848FFF777
:1027F0001FFF2846FFF774FE2046FFF7F9FE7548D5
:10280000FFF716FF2846FFF76BFE2046FFF7F0FEA6
:102810007148FFF70DFF2846FFF762FE2046FFF7DD
:10282000E7FE6E48FFF704FF2846FFF759FE2046F3
:10283000FFF7DEFE6A48FFF7FBFE2846FFF750FE73
:102840002046FFF7D5FE6748FFF7F2FE2846FFF760
:1028500047FE2046FFF7CCFE6348FFF7E9FE284617
:10286000FFF73EFE2046FFF7C3FE6048FFF7E0FE9D
:102870000820FFF735FE2046FFF7BAFE5C48FFF759
:10288000D7FE2846FFF72CFE2046FFF7B1FE594839
:10289000FFF7CEFE2846FFF723FE2046FFF7A8FEEF
:1028A0005548FFF7C5FE2846FFF71AFE2046FFF7FA
:1028B0009FFE5248FFF7BCFE2846FFF711FE204658
:1028C000FFF796FE4E48FFF7B3FE2846FFF708FED7
:1028D0002046FFF78DFE4B48FFF7AAFEFFF7C8FD25
:1028E0002046FFF785FE4848FFF7A2FEFFF7C0FD30
:1028F0002046FFF77DFE4548FFF79AFEFFF7B8FD3B
:102900002046FFF775FE4248FFF792FEFFF7B0FD45
:102910002046FFF76DFE3F48FFF78AFEFF20FFF7D6
:10292000DFFD2046FFF764FE3B48FFF781FE802075
:10293000FFF7D6FD2046FFF75BFE3848FFF778FE2D
:10294000FFF796FD2046FFF753FE3548FFF770FE70
:10295000FFF78EFD2046FFF74BFE3248FFF768FE7B
:10296000FFF786FD2046BDE83840FFF741BE00BFB7
:10297000D8130020F47A0008207D00084C7D000860
:10298000787D0008A47D0008D07D0008FC7D00084B
:10299000287E0008547E0008807E0008AC7E000877
:1029A000D87E0008047F0008307F00085C7F0008A4
:1029B000887F0008B47F0008E07F00080C800008D2
:1029C000388000086480000890800008BC800008FF
:1029D000E880000814810008408100086C8100082C
:1029E00098810008C4810008F08100081C8200085A
:1029F0004882000874820008A0820008CC82000887
:102A0000F882000824830008508300087C830008B3
:102A1000A8830008D4830008008400082C840008E0
:102A200058840008848400080000000000000000B2
:102A300038B5184B1848194C01251D60FFF7D8FD13
:102A40001748FFF7F5FD2846FFF74AFD2046FFF738
:102A5000CFFD1448FFF7ECFD1348FFF7C9FD1348FD
:102A6000FFF7E6FD0520FFF73BFD2046FFF7C0FD21
:102A70000F48FFF7DDFDFFF7FBFC2046FFF7B8FD31
:102A80000C48FFF7D5FDFFF7F3FC2046BDE83840C2
:102A9000FFF7AEBDD8130020087C0008F47A0008C8
:102AA0003C7C0008687C0008947C00089C7C000842
:102AB000C87C0008F47C0008000000000000000052
:102AC0001C4B1D4810B501221A60FFF7B1FD1B48D1
:102AD0001B4CFFF78DFD1B48FFF7AAFD1A48FFF7B7
:102AE00087FD1A48FFF7A4FD1948FFF781FD194833
:102AF000FFF79EFD1848FFF77BFD1848FFF798FD8C
:102B00000420FFF7EDFC2046FFF772FD1448FFF7A5
:102B10008FFD0820FFF7E4FC2046FFF769FD114810
:102B2000FFF786FD0820FFF7DBFC2046BDE81040DC
:102B3000FFF75EBDD81300205C7A0008887A000891
:102B4000F47A0008947A0008C07A0008CC7A000869
:102B5000F87A0008407B00086C7B0008847B000842
:102B6000B07B0008DC7B00080000000000000000D3
:102B7000F0B40D4E0D4F35683B4605E013F8014BA0
:102B800010F8012B944206D1AB42F7D3007810B96C
:102B90003760F0BC7047064C064A074B0120207096
:102BA00010701960F0BC7047EC130020DC1300209B
:102BB00051130020501300204C130020000000008F
:102BC00048B910B4054A064C064B0120207010701D
:102BD000196010BC70470020704700BF50130020E0
:102BE000511300204C1300200000000000000000E2
:102BF00070B5084D4C24286803682D21DB68984780
:102C0000013CF8D128680449036802225B68BDE8EA
:102C100070401847D4130020B08400080000000062
:102C2000202383F311880F4B5B6813F4006302D1F8
:102C300083F311887047EFF309834FF0807243F8F4
:102C4000042CA3F1200282F30988074A11689269D3
:102C50008968926891428CBF044A054A43F8082C5F
:102C6000704700BF00ED00E02C120020E1020008D8
:102C7000E402000800000000000000000000000066
:102C8000EFF30983203383F30988002383F311884A
:102C9000704700BF000000000000000000000000BE
:102CA00010B504460748FDF723FF6368013B6360E6
:102CB0001BB920460449FFF703FC0248BDE8104059
:102CC000FDF776BEA4120020E412002000000000F0
:102CD00010B504460748FDF70BFF6368013B6360CE
:102CE0001BB920460449FFF7EBFB0248BDE8104042
:102CF000FDF75EBEA4120020E012002000000000DC
:102D000038B5174D04462846FDF7F2FE6368013BCF
:102D1000636023B11248BDE83840FDF749BE05F1B4
:102D200028010A4602E09C420AD01A4613688B42E8
:102D3000F9D1202383F311880023EA6A1A60FFDEA9
:102D400023681360202383F31188EB6A2360002338
:102D5000EC6283F311880248BDE83840FDF728BED5
:102D6000A41200200000000000000000000000008D
:102D700010B504460748FDF7BBFE6368013B63607E
:102D80001BB920460449FFF79BFB0248BDE81040F1
:102D9000FDF70EBEA4120020C812002000000000A3
:102DA00038B5174D04462846FDF7A2FE6368013B7F
:102DB000636023B11248BDE83840FDF7F9BD05F165
:102DC00010010A4602E09C420AD01A4613688B4260
:102DD000F9D1202383F3118800236A691A60FFDE8A
:102DE00023681360202383F311886B692360002319
:102DF0006C6183F311880248BDE83840FDF7D8BD07
:102E0000A4120020000000000000000000000000EC
:102E100070B50C68A14212D00D46064602E0246847
:102E2000A5420CD008223146A01804F091FC0028DD
:102E3000F5D12CB1636801336360204670BD002476
:102E4000204670BD000000000000000000000000EF
:102E5000F8B50C68A1420D460646174603D10BE0B3
:102E60002468A54208D008223146A01804F070FC5E
:102E70000028F5D104B1F8BD3946002003F008FB65
:102E8000044658B108223146104404F0B3FC2B68C4
:102E900023600122626020462C60F8BDEBE700BF92
:102EA00008B52022034682F31188006828B1026821
:102EB0001A60002383F3118808BDDA68002AF8D06D
:102EC000996858689047002383F3118808BD00BFB4
:102ED000F8B50C68A1420D460646174603D10DE031
:102EE0002468A5420AD008223146A01804F030FC1C
:102EF0000028F5D114B104462046F8BD3846FFF746
:102F0000CFFF04460028F7D008223146104404F0D1
:102F100071FC2B6823600122626020462C60F8BDA2
:102F20002DE9F843174C002818BF044604F10C079C
:102F3000384689469046FDF7DBFD6368F3B100240F
:102F40002546264658681B68844206F1010605445A
:102F500038BF0446002BF5D1B9F1000F02D0ED00C7
:102F6000C9F80050B8F1000F02D0E400C8F80040E2
:102F70003846FDF71DFD3046BDE8F8831C461D466A
:102F80001E46E9E7E81200200000000000000000F3
:102F900008B5094B094A9B69094C9A614FF40055E1
:102FA0002E46268341F28830FEF7DAF8658341F237
:102FB0008830FEF7D5F8F4E72C120020B48400081E
:102FC000000C0240000000000000000000000000B3
:102FD000F8B5424C0125256003F0FAFDB0FA80F007
:102FE00040093F49FFF7ECFD00B1F8BD0223236023
:102FF00003F096FD0646003018BF01203949FFF75F
:10300000DFFD0028F1D10323236003F089FDB0FA2E
:1030100080F040093449FFF7D3FD0028E5D10423AF
:10302000236003F0D5FD0746003018BF01202F496B
:10303000FFF7C6FD0028D8D1F01BB0FA80F02C496C
:103040004009FFF7BDFD0028CFD178682849A0F1DD
:103050000200B0FA80F04009FFF7B2FD0028C4D1A9
:103060007B6823492B4428467B60FFF7A9FD002895
:10307000BBD178681E49A0F10300B0FA80F0400986
:10308000FFF79EFD0028B0D13846FFF709FE7868AB
:103090001849821E50425041FFF792FD0028A4D1EA
:1030A0003846FFF7FDFD70681249431B58425841EE
:1030B000FFF786FD002898D1304605232360FFF7EF
:1030C000EFFD0623236003F083FDB0FA80F0400992
:1030D0000349BDE8F840FFF773BD00BFD8130020D7
:1030E00038860008188600082886000834860008FC
:1030F000408600085C860008000000000000000018
:1031000010B503F065FD40B1436804462BB120467D
:10311000FFF7C6FD6368002BF9D110BD0000000069
:10312000F8B5424C0125256003F0E2FCB0FA80F0CE
:1031300040093F49FFF744FD00B1F8BD0223236079
:1031400003F0A6FC0646003018BF01203949FFF7FE
:1031500037FD0028F1D10323236003F099FCB0FA76
:1031600080F040093449FFF72BFD0028E5D1042306
:10317000236003F0BDFC0746003018BF01202F4933
:10318000FFF71EFD0028D8D1F01BB0FA80F02C49C3
:103190004009FFF715FD0028CFD178682849A0F134
:1031A0000200B0FA80F04009FFF70AFD0028C4D100
:1031B0007B6823492B4428467B60FFF701FD0028EC
:1031C000BBD178681E49A0F10300B0FA80F0400935
:1031D000FFF7F6FC0028B0D13846FFF779FD786894
:1031E0001849821E50425041FFF7EAFC0028A4D142
:1031F0003846FFF76DFD70681249431B584258412D
:10320000FFF7DEFC002898D1304605232360FFF746
:103210005FFD0623236003F06BFCB0FA80F04009E9
:103220000349BDE8F840FFF7CBBC00BFD81300202E
:1032300038860008188600082886000834860008AA
:10324000408600085C8600080000000000000000C6
:1032500010B503F04DFC40B1436804462BB1204645
:10326000FFF736FD6368002BF9D110BD00000000A8
:10327000F8B5424C0125256003F0F2FBB0FA80F06E
:1032800040093F49FFF79CFC00B1F8BD02232360D1
:1032900003F0C6FB0646003018BF01203949FFF78E
:1032A0008FFC0028F1D10323236003F0B9FBB0FAAF
:1032B00080F040093449FFF783FC0028E5D104235E
:1032C000236003F0CDFB0746003018BF01202F49D3
:1032D000FFF776FC0028D8D1F01BB0FA80F02C491B
:1032E0004009FFF76DFC0028CFD178682849A0F18C
:1032F0000200B0FA80F04009FFF762FC0028C4D158
:103300007B6823492B4428467B60FFF759FC002843
:10331000BBD178681E49A0F10300B0FA80F04009E3
:10332000FFF74EFC0028B0D13846FFF7E9FC78687B
:103330001849821E50425041FFF742FC0028A4D198
:103340003846FFF7DDFC70681249431B584258416C
:10335000FFF736FC002898D1304605232360FFF79D
:10336000CFFC0623236003F07BFBB0FA80F040091A
:103370000349BDE8F840FFF723BC00BFD813002085
:103380003886000818860008288600083486000859
:10339000408600085C860008000000000000000075
:1033A00010B503F05DFB40B1436804462BB12046E5
:1033B000FFF7A6FC6368002BF9D110BD00000000E8
:1033C000F8B5424C0125256003F012FBB0FA80F0FD
:1033D00040093F49FFF7F4FB00B1F8BD0223236029
:1033E00003F0E6FA0646003018BF01203949FFF71E
:1033F000E7FB0028F1D10323236003F0D9FAB0FAE8
:1034000080F040093449FFF7DBFB0028E5D10423B5
:10341000236003F0EDFA0746003018BF01202F4962
:10342000FFF7CEFB0028D8D1F01BB0FA80F02C4972
:103430004009FFF7C5FB0028CFD178682849A0F1E3
:103440000200B0FA80F04009FFF7BAFB0028C4D1AF
:103450007B6823492B4428467B60FFF7B1FB00289B
:10346000BBD178681E49A0F10300B0FA80F0400992
:10347000FFF7A6FB0028B0D13846FFF779FC786843
:103480001849821E50425041FFF79AFB0028A4D1F0
:103490003846FFF76DFC70681249431B584258418B
:1034A000FFF78EFB002898D1304605232360FFF7F5
:1034B0005FFC0623236003F09BFAB0FA80F040091A
:1034C0000349BDE8F840FFF77BBB00BFD8130020DD
:1034D0003886000818860008288600083486000808
:1034E000408600085C860008000000000000000024
:1034F00010B503F07DFA40B1436804462BB1204675
:10350000FFF736FC6368002BF9D110BD0000000006
:103510002DE9F041514C0125256003F031FAB0FA54
:1035200080F040094E49FFF74BFB08B1BDE8F08140
:1035300002234C48236003F00BFA0646003018BF04
:1035400001204949FFF73CFB0028EFD103234748FE
:10355000236003F0FDF9B0FA80F040094449FFF719
:103560002FFB0028E2D10423236003F009FA074669
:10357000003018BF01203F49FFF722FB0028D5D1BA
:103580003B693D49186845F2AA58A0EB0800B0FA1B
:1035900080F04009FFF714FB0028C7D1F01BB0FAF8
:1035A00080F036494009FFF70BFB0028BED1786850
:1035B0003249A0F10200B0FA80F04009FFF700FBA9
:1035C0000028B3D17B682D492B4428467B60FFF748
:1035D000F7FA0028AAD13B6927491868A0EB080C24
:1035E000DCF1000040EB0C00FFF7EAFA00289DD167
:1035F00078682249A0F1030EDEF1000040EB0E00D6
:10360000FFF7DEFA002891D13846FFF7C9FB78684A
:103610001B49821E50425041FFF7D2FA002885D143
:103620003846FFF7BDFB70681549431B58425841A7
:10363000FFF7C6FA00287FF479AF304605232360F0
:10364000FFF7AEFB0623236003F09AF9B0FA80F08F
:1036500040090349BDE8F041FFF7B2BAD813002092
:103660003886000818080020A88500081C080020DB
:10367000B885000834860008C88500084086000820
:103680005C86000800000000000000000000000050
:1036900010B503F075F940B1436804462BB12046DC
:1036A000FFF77EFB6368002BF9D110BD000000001E
:1036B00070B5144C82B001236A4601A90020236032
:1036C000FFF72EFC1021104802F0E2FE0646003003
:1036D00018BF01200D49FFF773FA80B9054630463F
:1036E000FDF716FA02236FF0FF012846236002F06F
:1036F000CFFEB0FA80F040090549FFF761FA02B049
:1037000070BD00BFD8130020700900206C85000830
:10371000808500080000000000000000000000009C
:10372000BF4BC04819696FEAC15100226FEAD151FD
:103730002DE980484FF0FF3419611A6159695C61C5
:103740005A61196A61F0805119621A62596A5C62A1
:103750005A62196C41F080511964196E41F0805120
:103760001966016841F480710160196F01F44071BC
:10377000B1F5007F89B003D04FF4803119671A6723
:10378000DFF8A092A84DD9F80410A84EA84FDFF892
:103790009082DFF8CCE2A748A74CDFF8C8C221F43A
:1037A0000071C9F8041060234FF0800A4FF4807153
:1037B0004FF0400B4FF4007986F806332A46C6F8DE
:1037C00080B1C6F800B086F80733C6F880A1C6F805
:1037D00000A086F80833C6F88011316086F80933F6
:1037E000C6F88091C6F800904FF4806986F80A33D5
:1037F000C6F88091C6F800904FF4000986F8173398
:10380000C6F88091C6F8009086F82833C6F884116F
:10381000716042F8047B05F10C0100274FF00109AB
:1038200005F164036A60E96005F154022961102121
:10383000AA616A622A6285F808906F61EB61A963E8
:10384000D8F84020019142EA0902EB63C8F8402011
:10385000D8F86020AB6442EA0902C8F86020DEF8BC
:1038600008206B6405F174032B644FF08043686794
:1038700042EA090242F2CF00C5F84CC0AF62ED62E5
:103880002D654FF0805CCEF8082098624FF0FF3233
:1038900005F13000DA6204F11C0E28639F61686351
:1038A0005F6302A8A760DF6064605F60C3F8149084
:1038B000C3F8009086F81CA30023C6F880C1C6F8A0
:1038C00000C02460626202920022CDE90623C4F89F
:1038D0001CE0C4F820E024616461A7626767039775
:1038E0000497059702F04CFC02A8FCF739FE5348F8
:1038F000534A049BC4F838A0C4F86CA06367DFF88F
:1039000068A1476000F10C0387604761C0F800A020
:10391000C36002F1100A036102F124031420C2F80B
:1039200010A0906102F1280A53621C2002F13C03AE
:10393000DFF838E1DFF838C1C2F828A0106302EBE5
:103940000B0A0420D3633F4BC2F840A0D061506300
:1039500013629363DFF81CA13B483C4B97605761AF
:10396000D762CCF800A0CCF8040084F85170A766A8
:10397000676684F8529012605260A364DEF80C000F
:10398000334BD4F814A0DFF8F0C0C4F844A04FF6CD
:10399000FF021040034304F130022464CAF81020EF
:1039A000CEF80C30DCF80C302A48626143F08073AA
:1039B000CCF80C3003680199A26143EA090304F1D1
:1039C0005C0204F1580C4FF0200AE76484F8509030
:1039D0000360C4F858C08EF81F10E2658EF822A06C
:1039E000226687F3118862B68AF311881A48FCF7B9
:1039F0000FFE3946FCF79CFE87F311888AF3118885
:103A00002B7A4B456ED06A6F144B9A4266D003F501
:103A100080639A4262D040F2454393602EE000BF3B
:103A200000380240007000405813002000E100E020
:103A3000F8930008004400402C120020E8120020F7
:103A4000A41200208124000800000220BC84000889
:103A50000003FA05001000E0D484000800100140C3
:103A6000002004E0F10400082104000800ED00E05B
:103A700068090020F0130020F0ED00E04021012350
:103A800042F22C10002411615361FF21D060022307
:103A900014601068526885F878102B7284F31188CE
:103AA000042002F025FB082002F022FB2346174ADF
:103AB0001748184C184E194D802102F069FB03E09D
:103AC00041F28830FDF74CFB2369DB07F8D530461F
:103AD00003F04EFC284603F04BFCF1E740F68B0365
:103AE0009360CBE7D8F8403043F40033C8F8403057
:103AF000D8F86030C02243F40033C8F8603086F84C
:103B00002623C6F884B1C6F804B07CE7912F0008DC
:103B10009009002000000240008B0008D4860008B5
:103B2000024B00221B605B609A607047D80A00203D
:103B3000024B01221B605B609A607047E80A00201C
:103B4000704700BF000000000000000000000000FF
:103B5000024B00221B605B609A607047E80A0020FD
:103B6000044B00224FF4A4700421586099601A603D
:103B7000DA607047301300200000000000000000F1
:103B800002F09EB8000000000000000000000000ED
:103B900002F096B8000000000000000000000000E5
:103BA00001F0B6BD000000000000000000000000B1
:103BB00001F0AEBD000000000000000000000000A9
:103BC0002DE9F041B64F012382B03B60202686F3F9
:103BD0001188B44CB449206994E80C009B1AC0EBDE
:103BE000A300A0F10400B0FA80F04009FEF7E8FF5E
:103BF00028B1002383F3118802B0BDE8F0810546A7
:103C000080F3118802233B6002F01AFD86F31188CD
:103C100094E80C002069A5499B1AC0EBA300A0F111
:103C20000400B0FA80F04009FEF7CAFF804620B1D8
:103C300085F3118802B0BDE8F08180F3118886F326
:103C4000118820699A49B0FA80F04009FEF7B8FF60
:103C5000054620B188F3118802B0BDE8F08180F3F9
:103C6000118886F311882068A3689249C01AB0FAB7
:103C700080F04009FEF7A4FF80460028D8D180F3E9
:103C8000118886F311882068E3688B49C01AB0FA5E
:103C900080F04009FEF794FF0028DBD180F3118803
:103CA00003234FF0FF313B6002F0EAFC851C14BF98
:103CB000002001208149FEF783FF00289CD14FF0AE
:103CC000FF3102F045FD821C14BF002001207B491A
:103CD000FEF776FF00288FD14FF0FF3101A802F0E8
:103CE0009FFD831C14BF002001207449FEF768FF6C
:103CF000002881D10423724E20753B6042254FF08D
:103D0000FF31284602F0BCFCB0FA80F03146400991
:103D1000FEF756FF013500287FF46EAF452DEED13A
:103D20004FF0FF31412002F013FDB0FA80F040095E
:103D30006349FEF745FF054600287FF45DAF052384
:103D40003B60202686F3118894E80A0022695B1AFA
:103D5000B2EBA30F0CBF012000205A49FEF730FF41
:103D6000804600287FF464AF80F3118886F31188C1
:103D700020695549A0F1040CDCF1000040EB0C0077
:103D8000FEF71EFF054600287FF464AF80F311881C
:103D900086F31188E068A3684C49A0EB030EDEF1BE
:103DA000000040EB0E00FEF70BFF00287FF440AF51
:103DB00080F311880623424E3B6004254FF0FF310B
:103DC00001A802F02DFDB0FA80F031464009FEF75F
:103DD000F7FE00287FF410AF9DF80400FEF7F0FB1B
:103DE000013DEBD13A493B48FEF7C2FE00287FF483
:103DF00003AF07234FF0FF3146203B6002F040FC49
:103E0000B0FA80F040092E49FEF7DAFE00287FF470
:103E1000F3AE4FF0FF3101A802F002FDB0FA80F0DE
:103E200040092749FEF7CCFE00287FF4E5AE0823C1
:103E30003B60202686F3118894E8050023691B491E
:103E4000121AC3EBA2031F1F78427841FEF7B8FE97
:103E500000287FF4EDAE85F3118886F31188206980
:103E60001349B0FA80F04009FEF7AAFE00287FF45B
:103E7000DFAE85F311882068A3680E49C21A50424C
:103E80005041FEF79DFE00287FF4B6AE2068E3683F
:103E90000949C31A58425841FEF792FEACE600BFEA
:103EA000D813002064080020209400082C940008F7
:103EB0003894000844940008689400088C94000822
:103EC000A0940008B8940008C4940008D094000896
:103ED000E8940008F07800080000000000000000EE
:103EE00070B5334D334C344801232B60FEF7A0FBF3
:103EF0007820FEF7F5FA2046FEF77AFB02232F48DA
:103F00002B60FEF795FB4420FEF7EAFA2046FEF709
:103F10006FFB03232A482B60FEF78AFB1420FEF771
:103F2000DFFA2046FEF764FB042626482E60FEF7E3
:103F30007FFB0C20FEF7D4FA2046FEF759FB052341
:103F400021482B60FEF774FB1020FEF7C9FA2046CB
:103F5000FEF74EFB06231D482B60FEF769FB082089
:103F6000FEF7BEFA2046FEF743FB072318482B60F6
:103F7000FEF75EFB3046FEF7B3FA2046FEF738FB4D
:103F8000082314482B60FEF753FB1420FEF7A8FA11
:103F90002046FEF72DFB09230F482B60FEF748FB58
:103FA0002820FEF79DFA2046BDE87040FEF720BBB2
:103FB000D8130020B4950008A4950008BC9500080B
:103FC000CC950008DC950008EC950008FC950008ED
:103FD0000C9600081C9600082C96000800000000B3
:103FE0002DE9F843DFF880901C4C0123C9F800301C
:103FF000FEF7A6FA002580464FF0804742F20F7682
:104000002046FCF775FD2046FCF7D2FC2046FCF765
:104010006FFD2046FCF7CCFC2046FCF769FD2046EE
:10402000FCF7C6FC2046FCF763FD2046FCF7C0FC0D
:104030007B6AA3EB0803B34205F10105E0D9022333
:104040000748C9F80030FEF7F3FAA800FEF748FA6F
:104050000448BDE8F843FEF7CBBA00BFD80A0020F9
:104060008495000894950008D813002000000000F3
:104070002DE9F843DFF880901C4C0123C9F800308B
:10408000FEF75EFA002580464FF0804742F20F7639
:104090002046FCF7D5FB2046FCF77AFB2046FCF7D0
:1040A000CFFB2046FCF774FB2046FCF7C9FB2046FB
:1040B000FCF76EFB2046FCF7C3FB2046FCF768FBD1
:1040C0007B6AA3EB0803B34205F10105E0D90223A3
:1040D0000748C9F80030FEF7ABFAA800FEF700FA6F
:1040E0000448BDE8F843FEF783BA00BFE80A0020A1
:1040F0008495000874950008D81300200000000083
:1041000038B5084CA36993F821305A0708D4064DF6
:104110002846FCF795FBA36993F821305B07F7D598
:1041200038BD00BF2C120020E80A0020000000006B
:104130002DE9F84FDFF890B01E4F1F4E1F4D0123A1
:10414000CBF80030FEF7FCF90024A24681464FF080
:10415000200888F3118800233A4630460121FCF7F5
:104160000FFE3A46002342F210712846FCF708FE83
:104170003046FCF7CDFD2846FCF7CAFD8AF31188CE
:104180004FF0804342F20F725B6AA3EB0903934244
:1041900004F10104DDD902230948CBF80030FEF711
:1041A00047FA6000FEF79CF90648BDE8F84FFEF7B5
:1041B0001FBA00BF413B0008741100208811002085
:1041C0008495000868950008D813002000000000BE
:1041D0002DE9F04383B002ACDFF8D080DFF8D09057
:1041E0002D4F2E4E2E4D0122002344F8043DC9F8D8
:1041F0000020FEF7A5F9D8F8183099683A4623460A
:104200000139304601F0C4FFD8F8183028609968A9
:104210003A462346013906F5A47001F0B9FFD8F8F3
:104220001830686099683A462346013906F52470CB
:1042300001F0AEFFD8F81830A86099683A462346D6
:10424000013906F5767001F0A3FFD8F81830E86060
:1042500099683A460139234606F5A46001F098FFB3
:104260000223286142F21070C9F80030FCF778FF91
:10427000FEF786F9FEF774F903230A48C9F80030FF
:10428000FEF7D6F90198FEF72BF90748FEF7B0F9CB
:1042900003B0BDE8F08300BFC1420008F80A002067
:1042A00060110020849500085C9500082C12002005
:1042B000D8130020000000000000000000000000F3
:1042C00038B5094D0446FCF773F9FCF771F9FCF7B2
:1042D0006FF9FCF76DF92368AA690433236092F83B
:1042E00021305B07EFD538BD2C1200200000000004
:1042F0002DE9F041354DDFF80481AB69344A996806
:104300003448354C354F01230531C8F800300023BF
:1043100001F03EFFAB69206099682D4A30480431B6
:10432000002301F035FFAB6960609968284A2D4889
:104330000331002301F02CFFAB69A0609968244A87
:1043400029480231002301F023FFAB69E06099683E
:104350001F4A26480131002301F01AFF0223206181
:10436000C8F80030FEF7ECF8002406464FF0804510
:1043700000213846FCF784FC6B6A42F20F729B1BEB
:10438000934204F10104F3D90323C8F80030FEF787
:10439000F7F800211148FCF773FCFEF7E1F804235D
:1043A0001348C8F80030FEF743F92046FEF798F8A6
:1043B00004EB44040F48FEF73BF96000FEF790F869
:1043C0000D48BDE8F041FEF713B900BF2C120020E4
:1043D00001410008F80A002060110020E80A0020CE
:1043E000400C0020880D0020D00E00201810002066
:1043F00084950008489500085C950008D8130020B3
:104400002DE9F843174BDFF86C909B69DFF8688063
:104410009D68154F01231D44C9F80030FEF790F840
:1044200000240646002342462946384601F0B0FEE5
:10443000FCF7BEFB4FF0804342F20F725B6A9B1B9E
:10444000934204F10104EDD902230848C9F8003071
:10445000FEF7EEF82046FEF743F80548BDE8F843BE
:10446000FEF7C6B82C120020F80A00208495000838
:104470003C950008D8130020A14900080000000066
:104480002DE9F843174BDFF86C909B69DFF86880E3
:104490009D68154F0123C9F80030FEF751F8013D22
:1044A00000240646002342462946384601F070FEA5
:1044B000FCF7B6FB4FF0804342F20F725B6A9B1B26
:1044C000934204F10104EDD902230848C9F80030F1
:1044D000FEF7AEF82046FEF703F80548BDE8F843BE
:1044E000FEF786B82C120020F80A002084950008F8
:1044F0003C950008D8130020A149000800000000E6
:104500002B4B2C4A9B692C4899682DE9F047DFF822
:10451000B8A0013101240023CAF8004001F038FEA0
:10452000264A022304461060CAF80030FEF708F855
:1045300000252E46814620274FF0804887F31188BA
:1045400000212046FCF7F4F820460021FCF7F0F8A3
:1045500020460021FCF7ECF820460021FCF7E8F8A3
:1045600086F31188D8F8243042F20F72A3EB0903C6
:10457000934205F10405E1D90323CAF8003087F31B
:1045800011884FF0FF312046FCF7D2F886F31188EE
:10459000FDF7E6FF04230A48CAF80030FEF748F8A2
:1045A0006800FDF79DFF0748BDE8F047FEF720B81B
:1045B0002C120020D1450008F80A002060110020CC
:1045C000849500085C950008D813002000000000C6
:1045D000074A10B52023946983F311880320FCF760
:1045E000F7F8636A002BF9D0002383F3118810BD1C
:1045F0002C1200200000000000000000000000005D
:1046000070B520260025FCF7FBF8446A86F3118874
:104610002146FCF78DF885F31188002CF3D170BD8D
:104620002DE9F0410546FDF78BFF002480464FF051
:10463000804742F20F7601212846FCF741F97B6A58
:10464000A3EB0803B34204F10104F4D92846002186
:10465000FCF736F92046BDE8F08100BF00000000FD
:104660002DE9F0412C4E2D4DB3692D4F99682D4AFF
:104670002D4CDFF8C4804FF0010E01312846002395
:10468000C7F800E001F084FDB369206099684FF03D
:10469000020E4246023905F5A4700023C7F800E077
:1046A00001F076FDB369606099684246033905F50B
:1046B0002470002301F06CFDB369A0609968424644
:1046C000043905F57670002301F062FDB369E060FE
:1046D00099684246053905F5A460002301F058FDAC
:1046E0000323206120683B60FFF79AFF0446FDF733
:1046F00037FF04230D483B60FDF79AFF2046FDF786
:10470000EFFE0B48FDF794FF6000FDF7E9FE094856
:10471000BDE8F041FDF76CBF2C120020F80A002024
:10472000D81300200146000860110020849500087D
:10473000309500085C950008A149000800000000C1
:1047400038B5144B144C9B69144A996814480131CC
:1047500001250023256001F01BFD124A0223106091
:104760002360FFF75DFF0546FDF7FAFE03230E48C1
:104770002360FDF75DFF2846FDF7B2FE0B48FDF70D
:1047800057FF6800FDF7ACFE0948BDE83840FDF76B
:104790002FBF00BF2C120020D813002001460008B4
:1047A000F80A002060110020849500083095000868
:1047B0005C95000800000000000000000000000000
:1047C00038B5144B144C9B69144A99681448013944
:1047D00001250023256001F0DBFC124A0223106052
:1047E0002360FFF71DFF0546FDF7BAFE03230E48C1
:1047F0002360FDF71DFF2846FDF772FE0B48FDF70D
:1048000017FF6800FDF76CFE0948BDE83840FDF76A
:10481000EFBE00BF2C120020D81300200146000874
:10482000F80A0020601100208495000830950008E7
:104830005C9500080000000000000000000000007F
:10484000F8B53F4D3F4B404A40490120286003F1F5
:104850000C072026002486F31188086810600A607F
:1048600084F311889F4202D053F8042BF3E7384BAE
:10487000384A9B6938489E68384C0323711E2B6068
:1048800001F0AEFEB11E2060354A364801F0A8FEA8
:10489000F11E6060344A354801F0A2FE311FA0606D
:1048A000334A344801F09CFE334AE060711F3348BC
:1048B00001F096FE2368206104222A60002B3CD080
:1048C000606828B1A06818B1E068003018BF012006
:1048D0002B49FEF775F900B1F8BD20692949B0FAF6
:1048E00080F04009FEF76CF90028F5D105232B6014
:1048F000FDF736FE24492548FEF73AF90028EBD1AA
:104900000623124F224E2B6004243846FEF7C8FAC5
:10491000003018BF01203146FEF752F90028DBD1E4
:10492000013CF2D10948FEF7BBFAB0FA80F0400929
:104930001849BDE8F840FEF743B91846C8E700BF7C
:10494000D813002040960008F80A002030130020F9
:104950002C120020AC790008B0790008601100200A
:10496000D0790008D4790008DC790008E0790008E3
:10497000E4780008FC940008EC780008049500082E
:10498000B8790008E879000814790008F078000880
:104990000C9500081C9500080000000000000000B5
:1049A000FCF78EB9000000000000000000000000CD
:1049B000024B00221B605B609A6070475408002025
:1049C000044A054B126000215260916099601B609F
:1049D0005B607047540800200808002000000000B9
:1049E000FFF7E6BF0000000000000000000000002C
:1049F000024B00221B605B609A60704740130020EE
:104A0000FFF7F6BF000000000000000000000000FB
:104A1000FFF7EEBF000000000000000000000000F3
:104A2000FFF7E6BF000000000000000000000000EB
:104A3000024B01221B605B609A60704740130020AC
:104A4000FCF7FEBE000000000000000000000000B7
:104A50002DE9F8434E4D4F4CAA6902239668236016
:104A600001F05EFC4C49FEF7ABF808B1BDE8F883F5
:104A70000323236001F054FC80F00100C0B24749D9
:104A8000FEF79EF80028F1D1454F042338462360F5
:104A9000FBF78EFFB8684349B0FA80F04009FEF793
:104AA0008FF80028E2D138683F49C01BB0FA80F087
:104AB0004009FEF785F80028D8D1AB693B499868D2
:104AC000801BB0FA80F0052340092360FEF778F8D8
:104AD0000028CBD10623236001F022FC2E49FEF7EB
:104AE0006FF80028C2D101F01BFC80F00100C0B2B9
:104AF0002A49FEF765F80028B8D1D5F81890202388
:104B000083F31188D9F83830E3B180461A68D96840
:104B1000C9F838109342104636D01168D2F838E000
:104B200019604B609A60C3F80CE09363FBF7B0FE2A
:104B3000D9F83830002BE9D1D9F83C30C9F8083021
:104B4000FBF7CEFD002383F31188B8681549B0FA4E
:104B500080F04009FEF734F8002887D13868124900
:104B6000C71B78427841FEF72BF800287FF47EAF10
:104B7000AB690E499868821B07235042236050415D
:104B8000BDE8F843FEF71CB8C3F808800B46D1E730
:104B90002C120020D8130020E0960008F0960008A0
:104BA00054080020FC960008089700081897000891
:104BB00010B5064C4FF4FA70FCF7D2FA2046FBF71A
:104BC00097FF2046BDE81040FBF7F2BE54080020D6
:104BD0002DE9F843404D414EAA69414B9468414844
:104BE000414A424F04F101084FF0020E4146C6F817
:104BF00000E001F0CDFA04F10209494638603C4B6F
:104C00003C4A3D4801F0C4FA032378603B483360D6
:104C1000FBF76EFFAB693A499868001BB0FA80F069
:104C20004009FDF7CDFF08B1BDE8F88304234FF438
:104C30007A703360FCF794FAAB6931499868A0EB5D
:104C40000800B0FA80F04009FDF7BAFF0028EBD168
:104C500005232C483360FBF74BFFAB692849986864
:104C6000A0EB0800B0FA80F04009FDF7A9FF00288A
:104C7000DAD106234FF47A703360FCF771FAAB692E
:104C80001F499868A0EB0900B0FA80F04009FDF7D1
:104C900097FF0028C8D107231A483360FBF788FE26
:104CA000AB6917499868A0EB0800B0FA80F040099A
:104CB000FDF786FF0028B7D1082310483360FBF7C3
:104CC00077FEAB690E499868001BB0FA80F0400986
:104CD000BDE8F843FDF774BF2C120020D813002064
:104CE000AC790008F80A0020B14B000860110020E0
:104CF000D0790008114D0008400C00205408002015
:104D000018970008080800200000000000000000BC
:104D100010B540F2DC50FCF723FA202383F311880E
:104D2000064C2046FBF77CFE2046FBF719FEFBF7FE
:104D3000D7FC002383F3118810BD00BF08080020B2
:104D4000FDF70EBC000000000000000000000000A5
:104D5000FDF706BC0000000000000000000000009D
:104D6000FDF7FEBB00000000000000000000000096
:104D7000F8B5244F244EBB6924489C68244D022377
:104D80003360FBF7B5FE4FF0030E611C214B224A46
:104D90002248C6F800E001F0FBF9A11C2860204B76
:104DA0001D4A204801F0F4F9E11C68601E4B1A4AC4
:104DB0001E4801F0EDF9211DA8601D4B164A1D4843
:104DC00001F0E6F9611D144AE8601B4B1B4801F035
:104DD000DFF9042328610D483360FBF7E9FDFDF797
:104DE000BFFBBB6916499868001BB0FA80F0400908
:104DF000FDF7E6FE00B1F8BD12491348BDE8F840E2
:104E0000FDF7B6BE2C120020D81300205408002055
:104E100060110020EC780008114F0008F80A00200B
:104E2000E4780008400C0020DC790008880D0020A0
:104E3000D0790008D00E0020AC79000818100020AE
:104E40001897000814790008E878000800000000AE
:104E5000234B24489A69244B9168244A70B5244C0A
:104E600001310125256001F093F9224B02251860DC
:104E70002560202383F311881F4C002602E0012DBA
:104E80000ED00125A3680133002BA360F7DC206856
:104E9000036823605C60FBF7FBFC012D4662F0D1E8
:104EA000FBF71EFC002585F31188FDF759FB202335
:104EB00083F31188A0681149A0F10100B0FA80F0D5
:104EC0004009FDF77DFE10B185F3118870BD80F3B8
:104ED00011880B490448BDE87040FDF749BE00BF8A
:104EE0002C120020F80A0020AC790008515000086C
:104EF000D813002060110020401300207C96000889
:104F0000147900080000000000000000000000000C
:104F100038B5064C05462046FBF7EAFD2878FDF734
:104F20004FFB2046BDE83840FBF742BD5408002047
:104F300038B5064C05462046FBF7DAFD2878FDF724
:104F40003FFB2046BDE83840FBF732BD0808002093
:104F5000F8B507461B48FBF7CBFD1B48FBF7C8FD20
:104F6000202383F31188194DAB699E6B3046FBF704
:104F7000F7FC174BAC691846636203E09968A268B6
:104F8000914202D31B688342F8D15A686260236061
:104F9000072014605C60FBF71BFCAB695B6A0133A4
:104FA00002D03046FBF73CFD002383F311883878AC
:104FB000FDF706FB0448FBF7FBFC0248BDE8F840A0
:104FC000FBF7F6BC08080020540800202C12002033
:104FD0003008002000000000000000000000000079
:104FE00070B506461648FBF783FD202383F311882E
:104FF000144B9C69A56B2846FBF7B2FC1248606213
:10500000034603E09968A268914202D31B68834279
:10501000F8D15A6862602360072014605C60FBF777
:10502000D7FB2846FBF7FCFC002383F3118830787C
:10503000FDF7C6FA0248BDE87040FBF7B9BC00BFF7
:10504000540800202C12002030080020000000002E
:1050500010B504460348FBF7F3FB2078BDE8104089
:10506000FDF7AEBA40130020000000000000000071
:1050700000210148FBF704BE40130020000000009F
:105080002DE9F041604F84B001AC012300263B6064
:105090000194029403964FF0200888F31188039836
:1050A0005A49B042CCBF00200120FDF789FD20B154
:1050B00086F3118804B0BDE8F081054680F31188BD
:1050C0000223014620463B60FBF7DAFD88F3118896
:1050D00003984E490028CCBF00200120FDF770FD49
:1050E000064620B185F3118804B0BDE8F08180F355
:1050F0001188474B474A9B694748996803250139FE
:1051000023463D6001F044F8444A042310602046E1
:105110003B60FBF795FB054688F3118803983B49F4
:105120000028CCBF00200120FDF74AFD0028BFD198
:1051300080F31188B5FA85F040093949FDF740FD43
:105140000028B7D105233B6088F31188039B002B0F
:1051500023DDFBF7C5FA002585F31188202686F3A9
:10516000118803982F49A842D4BF00200120FDF7E1
:1051700027FD80460028B5D180F3118886F3118879
:1051800003982949A0F10100B0FA80F04009FDF729
:1051900017FD30B188F311888CE72046FBF760FDDE
:1051A000D7E780F3118806233B6086F31188039BC1
:1051B000002B22DDFBF794FA002686F311882025C8
:1051C00085F3118803981949B042D4BF002001200B
:1051D000FDF7F6FC044600287FF46AAF80F31188DF
:1051E00085F3118803981049431E58425841FDF732
:1051F000E7FC30B184F311885CE72046FBF730FD13
:10520000D8E780F3118855E7D8130020A09600084E
:105210002C12002061520008F80A002060110020C2
:10522000AC960008C0960008CC960008A49600082A
:1052300008B54FF4FA70FBF793FF202383F311882E
:105240000448FBF70DFDFBF74BFA002383F31188AD
:1052500008BD00BF40130020000000000000000057
:1052600008B5202282F311888368002B05DDFBF747
:1052700037FA002383F3118808BDFBF7F1FCFBF735
:105280002FFA002383F3118808BD00BF000000003F
:105290001E4B1F4A9B691F48996870B51E4D1F4CD5
:1052A0000131002301262E6000F072FF1C4A022308
:1052B00010602B6000F0FCFF20681A49001BB0FA58
:1052C00080F04009FDF77CFC00B170BDA068164974
:1052D000B0FA80F04009FDF773FC0028F5D10323F4
:1052E0002B6000F0E5FF20680E49001BB0FA80F04B
:1052F0004009FDF765FC0028E7D1A0680A49B0FA2B
:1053000080F04009BDE87040FDF75ABC2C12002027
:1053100031530008F80A0020D81300204013002061
:1053200060110020089700088C960008000000001B
:1053300010B5044C2046FBF783FA2046BDE8104028
:10534000FBF726BA40130020000000000000000018
:105350002DE9F843DFF8E0802C4FD8F818302C4EB8
:105360009968DFF8D8902B4B2B4D3A4605313046E3
:105370000124C9F8004000F00BFFD8F8183028606D
:105380009968264B264C3A46013106F5A47000F088
:10539000FFFED8F8183068609968224B3A4603310E
:1053A00006F5247000F0F4FED8F81830A86099686B
:1053B0001D4B3A46043106F5767000F0E9FED8F848
:1053C0001830E8609968194B02313A4606F5A46036
:1053D00000F0DEFE022328612046C9F80030FBF70A
:1053E000D7F92046FBF7D4F92046FBF7D1F9204640
:1053F000FBF7CEF92046FBF7CBF9FDF7B1F80C49E6
:105400000C48BDE8F843FDF7B3BB00BF515000089E
:10541000F80A0020AC79000860110020D07900085B
:1054200040130020DC790008E4780008EC780008DC
:1054300014790008E87800082C120020D813002006
:105440002DE9F8432B4C2C4E012320463360FBF70B
:10545000F7F92025074685F31188A0682749B0FA97
:1054600080F04009FDF7ACFB20B1002383F31188E5
:10547000BDE8F88380F31188B7FA87F04009204926
:10548000FDF79EFB074608B1BDE8F8834FF002091F
:105490002046C6F80090FBF77BF985F31188A068D9
:1054A0001649A0F10100B0FA80F04009FDF788FB31
:1054B000804618B187F31188BDE8F88380F311881E
:1054C0000323494620463360FBF7DAFB85F3118856
:1054D000A0680A49A0F10200B0FA80F04009FDF787
:1054E0006FFB10B980F31188CEE788F31188BDE80F
:1054F000F88300BF40130020D81300205096000806
:105500006496000800000000000000000000000099
:105510002DE9F8434B4D01202860202383F31188A7
:10552000494CA368013B5CBFA3600020002383F3C8
:1055300011884649FDF744FB08B1BDE8F8832068AF
:105540004349001BB0FA80F04009FDF739FB002801
:10555000F3D1A0683F49B0FA80F04009FDF730FB75
:1055600003460028E9D13C493C4A89693C4889689E
:10557000022601392E6000F00BFE3A4B186041F212
:10558000883000F06DFE0646FCF7EAFFB6FA86F0BA
:1055900040092E49FDF714FB0028CED120682C4984
:1055A000001BB0FA80F04009FDF70AFB0028C4D1C7
:1055B000A0682849B0FA80F04009FDF701FB0028F7
:1055C000BBD103232B60FCF7BBFF204F204EDFF83D
:1055D0008480412581462846FCF7F2FF4FF4FA709B
:1055E00000F03EFEA0F1FF30B0FA80F039464009ED
:1055F000FDF7E6FA314600289FD12068001BB0FA7B
:1056000080F04009FDF7DCFA4146002895D1A068FA
:10561000B0FA80F04009FDF7D3FA0135EDB2002869
:105620008BD1462DD7D110491048FDF7A1FA00289B
:1056300083D109F6D81109F6C410BDE8F84301F08A
:10564000DFBA00BFD813002040130020A094000848
:10565000089700088C9600082C1200203152000890
:10566000F80A00206011002014790008E87800088A
:105670000B4B0C4AD91D21F00701CB1AC3F178035B
:105680000020DB0810B44B6002F10C04516008608C
:105690009060D46014611060506110BC704700BF0E
:1056A000AC11002070090020000000000000000084
:1056B000054B002204211B605B60DA609A619A60EE
:1056C00019615961704700BF3808002000000000D0
:1056D000FFF7EEBF00000000000000000000000027
:1056E00000207047000000000000000000000000E3
:1056F000034B002104221960D9605A609A607047F8
:105700002008002000000000000000000000000051
:1057100030B40A4B0A4A1A6003F1180402F110056A
:1057200003F1200000215D609C61DC61DA609A6019
:10573000186258621961197530BC704764080020FE
:105740002013002000000000000000000000000006
:105750002DE9F041C04CC14884B0012369460022C4
:105760002360FDF7DDFBA0F10100B0FA80F0BC4939
:105770004009FDF725FA10B104B0BDE8F08102231D
:105780004FF48071B548236000F082FEB0FA80F0DB
:105790004009B449FDF714FA0028EDD10323102184
:1057A000AE48236000F074FE0546003018BF0120AB
:1057B000AD49FDF705FA0028DED12846FBF7A8F928
:1057C000042302A903AAA5482360FDF7A9FB034609
:1057D000A0F10100B0FA80F04009A4490193FDF75F
:1057E000EFF90028C8D10298A1490F2894BF0020E2
:1057F0000120FDF7E5F90028BED10298039B9C49E2
:10580000C01AB0FA80F04009FDF7DAF90546002821
:10581000B2D1052310219148236000F039FE1021F8
:1058200080468E4800F034FE102107468B4800F079
:105830002FFE06464046FBF76BF93846FBF768F942
:105840003046FBF765F92A4601A98448FDF768FB55
:10585000A0F10100B0FA80F081494009FDF7B0F9EC
:105860000546002888D1062310217C48236000F0DB
:105870000FFE10210646794800F00AFE1021074667
:10588000764800F005FEFBF743F93846FBF740F990
:105890003046FBF73DF92A4601A97048FDF740FB69
:1058A000A0F10100B0FA80F06D494009FDF788F9D8
:1058B000054600287FF460AF072311216748236065
:1058C00000F0E6FD10210646644800F0E1FD0746C1
:1058D0003046FBF71DF92A4601A96048FDF720FB79
:1058E000A0F10208D8F10000624940EB0800FDF782
:1058F00067F9054600287FF43FAF1021574800F0B4
:10590000C7FD2A46064601A95448FDF709FB0128B0
:1059100000F09F80002201A95048FDF701FBA0F193
:10592000020CDCF1000040EB0C004D49FDF748F99A
:10593000054600287FF420AF3846FBF7E9F83046EB
:10594000FBF7E6F82A4601A94448FDF7E9FA00F119
:10595000FF3EDEF10000424940EB0E00FDF730F95A
:10596000054600287FF408AF082310213B48236038
:1059700000F08EFD10210746384800F089FD0646EC
:105980003846FBF7C5F82A4601A93448FDF7C8FA9E
:10599000871E784237497841FDF712F905460028FD
:1059A0007FF4EAAE20212D4800F072FDFBF7B0F83D
:1059B0003046FBF7ADF82A4601A92848FDF7B0FAB2
:1059C000451E684226496841FDF7FAF8024600285C
:1059D0007FF4D2AE092301A920482360FDF7A0FA85
:1059E00001991E4800F054FD064600301E4918BFBC
:1059F0000120FDF7E5F8024600287FF4BDAE014620
:105A00001648FDF78DFAB0FA80F040091A49FDF703
:105A1000D7F8054600287FF4AFAE3046FBF778F89C
:105A20002A4601A90A230D482360FDF779FA421E90
:105A3000504250410A49FDF7C3F800287FF49CAE5C
:105A40000198009B0D49C31A58425841FDF7B8F818
:105A500092E6012069E700BFD813002070090020FA
:105A60009C790008808500086C850008689700080C
:105A70007C970008949700082C940008A4970008CD
:105A800008B5074B01224FF47A701A6000F028FF26
:105A9000B0FA80F040090349BDE80840FDF790B82E
:105AA000D8130020589700080000000000000000F4
:105AB0002DE9F047DFF8F4A0384D394C0123CAF83E
:105AC0000030A94604264FF02008002788F31188EB
:105AD000EB6823604846EC60FBF7C2F8FAF700FE7B
